{
  "address": "0x1A8B63c8C889aA5a6A8a15191f7674027Ae53465",
  "abi": [
    {
      "anonymous": false,
      "inputs": [
        {
          "indexed": true,
          "internalType": "address",
          "name": "pool_address",
          "type": "address"
        },
        {
          "indexed": false,
          "internalType": "uint256",
          "name": "timestamp",
          "type": "uint256"
        }
      ],
      "name": "Cancelled",
      "type": "event"
    },
    {
      "anonymous": false,
      "inputs": [
        {
          "indexed": true,
          "internalType": "address",
          "name": "pool_address",
          "type": "address"
        },
        {
          "indexed": false,
          "internalType": "uint256",
          "name": "total_claimed",
          "type": "uint256"
        },
        {
          "indexed": false,
          "internalType": "uint256",
          "name": "pending_claim",
          "type": "uint256"
        },
        {
          "indexed": false,
          "internalType": "address",
          "name": "user_address",
          "type": "address"
        }
      ],
      "name": "Claimed",
      "type": "event"
    },
    {
      "anonymous": false,
      "inputs": [
        {
          "indexed": true,
          "internalType": "address",
          "name": "pool_address",
          "type": "address"
        },
        {
          "indexed": false,
          "internalType": "uint256",
          "name": "value",
          "type": "uint256"
        },
        {
          "indexed": false,
          "internalType": "address",
          "name": "user",
          "type": "address"
        },
        {
          "indexed": false,
          "internalType": "uint256",
          "name": "totalRaised",
          "type": "uint256"
        }
      ],
      "name": "Contributed",
      "type": "event"
    },
    {
      "anonymous": false,
      "inputs": [
        {
          "indexed": true,
          "internalType": "address",
          "name": "pool_address",
          "type": "address"
        },
        {
          "indexed": false,
          "internalType": "uint256",
          "name": "amount",
          "type": "uint256"
        },
        {
          "indexed": false,
          "internalType": "uint256",
          "name": "fees",
          "type": "uint256"
        },
        {
          "indexed": false,
          "internalType": "address",
          "name": "user",
          "type": "address"
        }
      ],
      "name": "ContributionWithdrawn",
      "type": "event"
    },
    {
      "anonymous": false,
      "inputs": [
        {
          "indexed": true,
          "internalType": "address",
          "name": "pool_address",
          "type": "address"
        },
        {
          "indexed": false,
          "internalType": "address",
          "name": "user",
          "type": "address"
        },
        {
          "indexed": false,
          "internalType": "uint256",
          "name": "amount",
          "type": "uint256"
        },
        {
          "indexed": false,
          "internalType": "address",
          "name": "pair",
          "type": "address"
        }
      ],
      "name": "EmergencyLiquidityWithdrawn",
      "type": "event"
    },
    {
      "anonymous": false,
      "inputs": [
        {
          "indexed": true,
          "internalType": "address",
          "name": "pool_address",
          "type": "address"
        },
        {
          "indexed": false,
          "internalType": "address",
          "name": "user",
          "type": "address"
        },
        {
          "indexed": false,
          "internalType": "uint256",
          "name": "amount",
          "type": "uint256"
        },
        {
          "indexed": false,
          "internalType": "address",
          "name": "pair",
          "type": "address"
        }
      ],
      "name": "EmergencyWithdrawn",
      "type": "event"
    },
    {
      "anonymous": false,
      "inputs": [
        {
          "indexed": true,
          "internalType": "address",
          "name": "pool_address",
          "type": "address"
        },
        {
          "indexed": false,
          "internalType": "address",
          "name": "user",
          "type": "address"
        },
        {
          "indexed": false,
          "internalType": "address",
          "name": "token",
          "type": "address"
        },
        {
          "indexed": false,
          "internalType": "uint256",
          "name": "token_supply",
          "type": "uint256"
        },
        {
          "indexed": false,
          "internalType": "uint256",
          "name": "total_raised",
          "type": "uint256"
        }
      ],
      "name": "Finalized",
      "type": "event"
    },
    {
      "anonymous": false,
      "inputs": [
        {
          "indexed": true,
          "internalType": "address",
          "name": "pool_address",
          "type": "address"
        },
        {
          "indexed": false,
          "internalType": "address",
          "name": "_old",
          "type": "address"
        },
        {
          "indexed": false,
          "internalType": "address",
          "name": "_new",
          "type": "address"
        }
      ],
      "name": "GovernanceChanged",
      "type": "event"
    },
    {
      "anonymous": false,
      "inputs": [
        {
          "indexed": false,
          "internalType": "uint8",
          "name": "version",
          "type": "uint8"
        }
      ],
      "name": "Initialized",
      "type": "event"
    },
    {
      "anonymous": false,
      "inputs": [
        {
          "indexed": true,
          "internalType": "address",
          "name": "pool_address",
          "type": "address"
        },
        {
          "indexed": false,
          "internalType": "address",
          "name": "user",
          "type": "address"
        },
        {
          "indexed": false,
          "internalType": "uint256",
          "name": "amount",
          "type": "uint256"
        },
        {
          "indexed": false,
          "internalType": "address",
          "name": "payment_currency",
          "type": "address"
        }
      ],
      "name": "LiquidityWithdrawn",
      "type": "event"
    },
    {
      "anonymous": false,
      "inputs": [
        {
          "indexed": true,
          "internalType": "address",
          "name": "previousOwner",
          "type": "address"
        },
        {
          "indexed": true,
          "internalType": "address",
          "name": "newOwner",
          "type": "address"
        }
      ],
      "name": "OwnershipTransferred",
      "type": "event"
    },
    {
      "anonymous": false,
      "inputs": [
        {
          "indexed": false,
          "internalType": "uint256",
          "name": "timestamp",
          "type": "uint256"
        },
        {
          "indexed": false,
          "internalType": "uint256",
          "name": "start_at",
          "type": "uint256"
        }
      ],
      "name": "PoolPublicStartAtChanged",
      "type": "event"
    },
    {
      "anonymous": false,
      "inputs": [
        {
          "indexed": false,
          "internalType": "uint256",
          "name": "timestamp",
          "type": "uint256"
        },
        {
          "indexed": false,
          "internalType": "uint256",
          "name": "_endTime1",
          "type": "uint256"
        },
        {
          "indexed": false,
          "internalType": "uint256",
          "name": "_publicStartTime",
          "type": "uint256"
        }
      ],
      "name": "PoolTierChanged",
      "type": "event"
    },
    {
      "anonymous": false,
      "inputs": [
        {
          "indexed": true,
          "internalType": "address",
          "name": "pool_address",
          "type": "address"
        },
        {
          "indexed": false,
          "internalType": "uint256",
          "name": "_old_rate",
          "type": "uint256"
        },
        {
          "indexed": false,
          "internalType": "uint256",
          "name": "_new_rate",
          "type": "uint256"
        }
      ],
      "name": "RateChanged",
      "type": "event"
    },
    {
      "anonymous": false,
      "inputs": [
        {
          "indexed": false,
          "internalType": "bool",
          "name": "_whitelist",
          "type": "bool"
        }
      ],
      "name": "WhitelistChanged",
      "type": "event"
    },
    {
      "inputs": [],
      "name": "MINIMUM_LOCK_DAYS",
      "outputs": [
        {
          "internalType": "uint256",
          "name": "",
          "type": "uint256"
        }
      ],
      "stateMutability": "view",
      "type": "function"
    },
    {
      "inputs": [],
      "name": "VERSION",
      "outputs": [
        {
          "internalType": "uint8",
          "name": "",
          "type": "uint8"
        }
      ],
      "stateMutability": "view",
      "type": "function"
    },
    {
      "inputs": [],
      "name": "cancel",
      "outputs": [],
      "stateMutability": "nonpayable",
      "type": "function"
    },
    {
      "inputs": [
        {
          "internalType": "uint256",
          "name": "_endTime1",
          "type": "uint256"
        },
        {
          "internalType": "uint256",
          "name": "_publicStartTime",
          "type": "uint256"
        }
      ],
      "name": "changeTierDates",
      "outputs": [],
      "stateMutability": "nonpayable",
      "type": "function"
    },
    {
      "inputs": [
        {
          "internalType": "bool",
          "name": "_whitelist",
          "type": "bool"
        }
      ],
      "name": "changeWhitelist",
      "outputs": [],
      "stateMutability": "nonpayable",
      "type": "function"
    },
    {
      "inputs": [],
      "name": "claim",
      "outputs": [],
      "stateMutability": "nonpayable",
      "type": "function"
    },
    {
      "inputs": [
        {
          "internalType": "address",
          "name": "",
          "type": "address"
        }
      ],
      "name": "claimedOf",
      "outputs": [
        {
          "internalType": "uint256",
          "name": "",
          "type": "uint256"
        }
      ],
      "stateMutability": "view",
      "type": "function"
    },
    {
      "inputs": [
        {
          "internalType": "uint256",
          "name": "_funds",
          "type": "uint256"
        }
      ],
      "name": "contribute",
      "outputs": [
        {
          "internalType": "bool",
          "name": "",
          "type": "bool"
        }
      ],
      "stateMutability": "payable",
      "type": "function"
    },
    {
      "inputs": [
        {
          "internalType": "address",
          "name": "",
          "type": "address"
        }
      ],
      "name": "contributionOf",
      "outputs": [
        {
          "internalType": "uint256",
          "name": "",
          "type": "uint256"
        }
      ],
      "stateMutability": "view",
      "type": "function"
    },
    {
      "inputs": [],
      "name": "cycle",
      "outputs": [
        {
          "internalType": "uint256",
          "name": "",
          "type": "uint256"
        }
      ],
      "stateMutability": "view",
      "type": "function"
    },
    {
      "inputs": [],
      "name": "cycleBps",
      "outputs": [
        {
          "internalType": "uint256",
          "name": "",
          "type": "uint256"
        }
      ],
      "stateMutability": "view",
      "type": "function"
    },
    {
      "inputs": [],
      "name": "emergencyWithdrawContribution",
      "outputs": [
        {
          "internalType": "bool",
          "name": "",
          "type": "bool"
        }
      ],
      "stateMutability": "payable",
      "type": "function"
    },
    {
      "inputs": [],
      "name": "emergencyWithdrawFees",
      "outputs": [
        {
          "internalType": "uint256",
          "name": "",
          "type": "uint256"
        }
      ],
      "stateMutability": "view",
      "type": "function"
    },
    {
      "inputs": [
        {
          "internalType": "address",
          "name": "payaddress",
          "type": "address"
        },
        {
          "internalType": "address",
          "name": "tokenAddress",
          "type": "address"
        },
        {
          "internalType": "uint256",
          "name": "tokens",
          "type": "uint256"
        }
      ],
      "name": "emergencyWithdrawToken",
      "outputs": [],
      "stateMutability": "nonpayable",
      "type": "function"
    },
    {
      "inputs": [],
      "name": "endTime",
      "outputs": [
        {
          "internalType": "uint256",
          "name": "",
          "type": "uint256"
        }
      ],
      "stateMutability": "view",
      "type": "function"
    },
    {
      "inputs": [
        {
          "internalType": "address",
          "name": "_token",
          "type": "address"
        },
        {
          "internalType": "uint256",
          "name": "_totalSupply",
          "type": "uint256"
        }
      ],
      "name": "finalize",
      "outputs": [],
      "stateMutability": "nonpayable",
      "type": "function"
    },
    {
      "inputs": [],
      "name": "getPaymentTokenDecimals",
      "outputs": [
        {
          "internalType": "uint8",
          "name": "",
          "type": "uint8"
        }
      ],
      "stateMutability": "view",
      "type": "function"
    },
    {
      "inputs": [],
      "name": "getPoolInfo",
      "outputs": [
        {
          "internalType": "address",
          "name": "",
          "type": "address"
        },
        {
          "internalType": "uint8[]",
          "name": "",
          "type": "uint8[]"
        },
        {
          "internalType": "uint256[]",
          "name": "",
          "type": "uint256[]"
        },
        {
          "internalType": "string",
          "name": "",
          "type": "string"
        },
        {
          "internalType": "string",
          "name": "",
          "type": "string"
        }
      ],
      "stateMutability": "view",
      "type": "function"
    },
    {
      "inputs": [],
      "name": "hardCap",
      "outputs": [
        {
          "internalType": "uint256",
          "name": "",
          "type": "uint256"
        }
      ],
      "stateMutability": "view",
      "type": "function"
    },
    {
      "inputs": [
        {
          "components": [
            {
              "internalType": "address",
              "name": "governance",
              "type": "address"
            },
            {
              "internalType": "uint256",
              "name": "salt",
              "type": "uint256"
            },
            {
              "internalType": "uint256",
              "name": "emergencyWithdrawFees",
              "type": "uint256"
            },
            {
              "internalType": "address",
              "name": "nftAddress",
              "type": "address"
            },
            {
              "internalType": "address",
              "name": "payment_currency",
              "type": "address"
            },
            {
              "internalType": "uint256",
              "name": "rate",
              "type": "uint256"
            },
            {
              "internalType": "uint256",
              "name": "min_payment",
              "type": "uint256"
            },
            {
              "internalType": "uint256",
              "name": "max_payment",
              "type": "uint256"
            },
            {
              "internalType": "uint256",
              "name": "softCap",
              "type": "uint256"
            },
            {
              "internalType": "uint256",
              "name": "hardCap",
              "type": "uint256"
            },
            {
              "internalType": "uint256",
              "name": "startTime",
              "type": "uint256"
            },
            {
              "internalType": "uint256",
              "name": "endTime",
              "type": "uint256"
            },
            {
              "internalType": "uint256",
              "name": "tgeBps",
              "type": "uint256"
            },
            {
              "internalType": "uint256",
              "name": "cycle",
              "type": "uint256"
            },
            {
              "internalType": "uint256",
              "name": "cycleBps",
              "type": "uint256"
            },
            {
              "internalType": "bool",
              "name": "useWhitelist",
              "type": "bool"
            },
            {
              "internalType": "uint256",
              "name": "publicStartTime",
              "type": "uint256"
            },
            {
              "components": [
                {
                  "internalType": "uint256",
                  "name": "startTime",
                  "type": "uint256"
                },
                {
                  "internalType": "uint256",
                  "name": "endTime",
                  "type": "uint256"
                }
              ],
              "internalType": "struct LibTier.Tier",
              "name": "tier1",
              "type": "tuple"
            }
          ],
          "internalType": "struct LibPresale.Presale",
          "name": "presale",
          "type": "tuple"
        },
        {
          "internalType": "address[2]",
          "name": "_linkAddress",
          "type": "address[2]"
        },
        {
          "internalType": "uint8",
          "name": "_version",
          "type": "uint8"
        }
      ],
      "name": "initialize",
      "outputs": [],
      "stateMutability": "nonpayable",
      "type": "function"
    },
    {
      "inputs": [],
      "name": "max_payment",
      "outputs": [
        {
          "internalType": "uint256",
          "name": "",
          "type": "uint256"
        }
      ],
      "stateMutability": "view",
      "type": "function"
    },
    {
      "inputs": [],
      "name": "min_payment",
      "outputs": [
        {
          "internalType": "uint256",
          "name": "",
          "type": "uint256"
        }
      ],
      "stateMutability": "view",
      "type": "function"
    },
    {
      "inputs": [],
      "name": "nftAddress",
      "outputs": [
        {
          "internalType": "contract IERC721",
          "name": "",
          "type": "address"
        }
      ],
      "stateMutability": "view",
      "type": "function"
    },
    {
      "inputs": [],
      "name": "owner",
      "outputs": [
        {
          "internalType": "address",
          "name": "",
          "type": "address"
        }
      ],
      "stateMutability": "view",
      "type": "function"
    },
    {
      "inputs": [],
      "name": "payment_currency",
      "outputs": [
        {
          "internalType": "address",
          "name": "",
          "type": "address"
        }
      ],
      "stateMutability": "view",
      "type": "function"
    },
    {
      "inputs": [],
      "name": "poolState",
      "outputs": [
        {
          "internalType": "enum Pool.PoolState",
          "name": "",
          "type": "uint8"
        }
      ],
      "stateMutability": "view",
      "type": "function"
    },
    {
      "inputs": [],
      "name": "poolType",
      "outputs": [
        {
          "internalType": "enum Pool.PoolType",
          "name": "",
          "type": "uint8"
        }
      ],
      "stateMutability": "view",
      "type": "function"
    },
    {
      "inputs": [],
      "name": "publicStartTime",
      "outputs": [
        {
          "internalType": "uint256",
          "name": "",
          "type": "uint256"
        }
      ],
      "stateMutability": "view",
      "type": "function"
    },
    {
      "inputs": [
        {
          "internalType": "address",
          "name": "",
          "type": "address"
        }
      ],
      "name": "purchasedOf",
      "outputs": [
        {
          "internalType": "uint256",
          "name": "",
          "type": "uint256"
        }
      ],
      "stateMutability": "view",
      "type": "function"
    },
    {
      "inputs": [],
      "name": "rate",
      "outputs": [
        {
          "internalType": "uint256",
          "name": "",
          "type": "uint256"
        }
      ],
      "stateMutability": "view",
      "type": "function"
    },
    {
      "inputs": [
        {
          "internalType": "address",
          "name": "",
          "type": "address"
        }
      ],
      "name": "refundedOf",
      "outputs": [
        {
          "internalType": "uint256",
          "name": "",
          "type": "uint256"
        }
      ],
      "stateMutability": "view",
      "type": "function"
    },
    {
      "inputs": [],
      "name": "renounceOwnership",
      "outputs": [],
      "stateMutability": "nonpayable",
      "type": "function"
    },
    {
      "inputs": [
        {
          "internalType": "uint256",
          "name": "_rate",
          "type": "uint256"
        }
      ],
      "name": "setRate",
      "outputs": [],
      "stateMutability": "nonpayable",
      "type": "function"
    },
    {
      "inputs": [],
      "name": "softCap",
      "outputs": [
        {
          "internalType": "uint256",
          "name": "",
          "type": "uint256"
        }
      ],
      "stateMutability": "view",
      "type": "function"
    },
    {
      "inputs": [],
      "name": "startPublicSaleNow",
      "outputs": [],
      "stateMutability": "nonpayable",
      "type": "function"
    },
    {
      "inputs": [],
      "name": "startTime",
      "outputs": [
        {
          "internalType": "uint256",
          "name": "",
          "type": "uint256"
        }
      ],
      "stateMutability": "view",
      "type": "function"
    },
    {
      "inputs": [],
      "name": "tgeBps",
      "outputs": [
        {
          "internalType": "uint256",
          "name": "",
          "type": "uint256"
        }
      ],
      "stateMutability": "view",
      "type": "function"
    },
    {
      "inputs": [],
      "name": "tgeDate",
      "outputs": [
        {
          "internalType": "uint256",
          "name": "",
          "type": "uint256"
        }
      ],
      "stateMutability": "view",
      "type": "function"
    },
    {
      "inputs": [],
      "name": "tier1",
      "outputs": [
        {
          "internalType": "uint256",
          "name": "startTime",
          "type": "uint256"
        },
        {
          "internalType": "uint256",
          "name": "endTime",
          "type": "uint256"
        }
      ],
      "stateMutability": "view",
      "type": "function"
    },
    {
      "inputs": [],
      "name": "token",
      "outputs": [
        {
          "internalType": "address",
          "name": "",
          "type": "address"
        }
      ],
      "stateMutability": "view",
      "type": "function"
    },
    {
      "inputs": [],
      "name": "totalClaimed",
      "outputs": [
        {
          "internalType": "uint256",
          "name": "",
          "type": "uint256"
        }
      ],
      "stateMutability": "view",
      "type": "function"
    },
    {
      "inputs": [],
      "name": "totalRaised",
      "outputs": [
        {
          "internalType": "uint256",
          "name": "",
          "type": "uint256"
        }
      ],
      "stateMutability": "view",
      "type": "function"
    },
    {
      "inputs": [],
      "name": "totalRefunded",
      "outputs": [
        {
          "internalType": "uint256",
          "name": "",
          "type": "uint256"
        }
      ],
      "stateMutability": "view",
      "type": "function"
    },
    {
      "inputs": [],
      "name": "totalVolumePurchased",
      "outputs": [
        {
          "internalType": "uint256",
          "name": "",
          "type": "uint256"
        }
      ],
      "stateMutability": "view",
      "type": "function"
    },
    {
      "inputs": [
        {
          "internalType": "address",
          "name": "newOwner",
          "type": "address"
        }
      ],
      "name": "transferOwnership",
      "outputs": [],
      "stateMutability": "nonpayable",
      "type": "function"
    },
    {
      "inputs": [],
      "name": "tvl",
      "outputs": [
        {
          "internalType": "uint256",
          "name": "",
          "type": "uint256"
        }
      ],
      "stateMutability": "view",
      "type": "function"
    },
    {
      "inputs": [],
      "name": "useWhitelisting",
      "outputs": [
        {
          "internalType": "bool",
          "name": "",
          "type": "bool"
        }
      ],
      "stateMutability": "view",
      "type": "function"
    },
    {
      "inputs": [
        {
          "internalType": "address",
          "name": "_userAddress",
          "type": "address"
        }
      ],
      "name": "userAvailableClaim",
      "outputs": [
        {
          "internalType": "uint256",
          "name": "",
          "type": "uint256"
        }
      ],
      "stateMutability": "view",
      "type": "function"
    },
    {
      "inputs": [],
      "name": "withdrawContribution",
      "outputs": [],
      "stateMutability": "nonpayable",
      "type": "function"
    },
    {
      "inputs": [],
      "name": "withdrawLeftovers",
      "outputs": [],
      "stateMutability": "nonpayable",
      "type": "function"
    },
    {
      "inputs": [],
      "name": "withdrawLiquidity",
      "outputs": [],
      "stateMutability": "nonpayable",
      "type": "function"
    }
  ],
  "transactionHash": "0x2e98b6a507d13b3e1c79765741ce2d6bcaad45f9bf390631339342c6a04fbe45",
  "args": [],
  "numDeployments": 1,
  "solcInputHash": "fcc152414ce513084607c1addc8aa59d",
  "bytecode": "0x608060405262278d0060675534801561001757600080fd5b5060016065556144ad8061002c6000396000f3fe6080604052600436106102e45760003560e01c806385cc604311610190578063d54ad2a1116100dc578063ea8a1af011610095578063fb86a4041161006f578063fb86a40414610839578063fc0c546a1461084f578063fd6075941461086f578063ffa1ad741461088557600080fd5b8063ea8a1af0146107ee578063f2fde38b14610803578063f49e25141461082357600080fd5b8063d54ad2a114610749578063d7805ece1461075f578063d79c5a461461078c578063d9082962146107a2578063de3d3ae8146107b8578063e5328e06146107d857600080fd5b8063b1dd61b611610149578063bb6b13a111610123578063bb6b13a1146106db578063c1cbbca71461070b578063c5c4744c1461071e578063cb21accf1461073457600080fd5b8063b1dd61b614610675578063b36f700114610694578063baa3f7ee146106ae57600080fd5b806385cc6043146105c85780638da5cb5b146105de578063906a26e0146105fc57806397bdc7c8146106125780639f37c5e814610632578063a93cdf501461065f57600080fd5b806334fcf4371161024f5780636190c9d5116102085780636d69f950116101e25780636d69f95014610568578063715018a61461058857806378e979251461059d5780637ea382c1146105b357600080fd5b80636190c9d514610513578063641ad8a914610529578063663082ce1461055057600080fd5b806334fcf437146104545780634e71d92d146104745780635bf8633a146104895780635c6cd36e146104c15780635fd1bbc4146104d757806360246c88146104ed57600080fd5b80632484dc08116102a15780632484dc08146103bd578063277327a5146103d35780632aa18b4e146103f35780632c4e722e146104135780633197cbb61461042957806332c764b91461043f57600080fd5b80630553e156146102e95780630744e8b81461030b5780630d616d20146103345780631436c06b146103495780631a70158b146103705780632249742a14610390575b600080fd5b3480156102f557600080fd5b50610309610304366004613a9f565b61089f565b005b34801561031757600080fd5b5061032160675481565b6040519081526020015b60405180910390f35b34801561034057600080fd5b50610309610b3a565b34801561035557600080fd5b5061035e610cd3565b60405160ff909116815260200161032b565b34801561037c57600080fd5b5061030961038b366004613ac9565b610d69565b34801561039c57600080fd5b506103216103ab366004613aeb565b607d6020526000908152604090205481565b3480156103c957600080fd5b50610321607e5481565b3480156103df57600080fd5b506103096103ee366004613b06565b610f96565b3480156103ff57600080fd5b5061032161040e366004613aeb565b610ff9565b34801561041f57600080fd5b50610321606b5481565b34801561043557600080fd5b5061032160725481565b34801561044b57600080fd5b5061030961100a565b34801561046057600080fd5b5061030961046f366004613b42565b6111fd565b34801561048057600080fd5b5061030961132a565b34801561049557600080fd5b50606c546104a9906001600160a01b031681565b6040516001600160a01b03909116815260200161032b565b3480156104cd57600080fd5b5061032160765481565b3480156104e357600080fd5b5061032160835481565b3480156104f957600080fd5b506105026115a7565b60405161032b959493929190613be6565b34801561051f57600080fd5b5061032160805481565b34801561053557600080fd5b506074546105439060ff1681565b60405161032b9190613cb0565b61055861191f565b604051901515815260200161032b565b34801561057457600080fd5b506069546104a9906001600160a01b031681565b34801561059457600080fd5b50610309611a43565b3480156105a957600080fd5b5061032160715481565b3480156105bf57600080fd5b50610309611a55565b3480156105d457600080fd5b5061032160815481565b3480156105ea57600080fd5b506033546001600160a01b03166104a9565b34801561060857600080fd5b50610321606f5481565b34801561061e57600080fd5b5061030961062d366004613cdc565b611ccc565b34801561063e57600080fd5b5061032161064d366004613aeb565b607b6020526000908152604090205481565b34801561066b57600080fd5b5061032160735481565b34801561068157600080fd5b5060745461054390610100900460ff1681565b3480156106a057600080fd5b506082546105589060ff1681565b3480156106ba57600080fd5b506103216106c9366004613aeb565b607c6020526000908152604090205481565b3480156106e757600080fd5b506084546085546106f6919082565b6040805192835260208301919091520161032b565b610558610719366004613b42565b611ddb565b34801561072a57600080fd5b5061032160755481565b34801561074057600080fd5b5061030961226d565b34801561075557600080fd5b5061032160775481565b34801561076b57600080fd5b5061032161077a366004613aeb565b607a6020526000908152604090205481565b34801561079857600080fd5b50610321606e5481565b3480156107ae57600080fd5b5061032160785481565b3480156107c457600080fd5b506103096107d3366004613e19565b61253d565b3480156107e457600080fd5b5061032160795481565b3480156107fa57600080fd5b50610309612c25565b34801561080f57600080fd5b5061030961081e366004613aeb565b612d53565b34801561082f57600080fd5b50610321607f5481565b34801561084557600080fd5b5061032160705481565b34801561085b57600080fd5b50606a546104a9906001600160a01b031681565b34801561087b57600080fd5b50610321606d5481565b34801561089157600080fd5b5060665461035e9060ff1681565b6033546001600160a01b03166001600160a01b03166363a846f8336040516001600160e01b031960e084901b1681526001600160a01b039091166004820152602401602060405180830381865afa1580156108fe573d6000803e3d6000fd5b505050506040513d601f19601f820116820180604052508101906109229190613f50565b8061093757506033546001600160a01b031633145b61095c5760405162461bcd60e51b815260040161095390613f6d565b60405180910390fd5b610964612dcc565b6001600160a01b0382166109ac5760405162461bcd60e51b815260206004820152600f60248201526e496e76616c6964204164647265737360881b6044820152606401610953565b600060745460ff1660028111156109c5576109c5613c7c565b14610a125760405162461bcd60e51b815260206004820181905260248201527f506f6f6c207761732066696e69616c697a6564206f722063616e63656c6c65646044820152606401610953565b6070546075541480610a335750606d54607554607054610a3191612e25565b105b80610a4f5750606f5460755410158015610a4f57506072544210155b610a9b5760405162461bcd60e51b815260206004820152601860248201527f4974206973206e6f742074696d6520746f2066696e69736800000000000000006044820152606401610953565b606a80546001600160a01b0319166001600160a01b0384169081179091556074805460ff1916600117905542607e55610ad690333084612e38565b606a54607554604080513381526001600160a01b0390931660208401528201839052606082015230907f16ef1b33dc4cc3d9d87d1ddd00362febf341c530b213e9335a16d5f069645f6f9060800160405180910390a2610b366001606555565b5050565b610b42612dcc565b600060745460ff166002811115610b5b57610b5b613c7c565b03610bfd57607254421015610bb25760405162461bcd60e51b815260206004820152601960248201527f506f6f6c206973207374696c6c20696e2070726f6772657373000000000000006044820152606401610953565b606f5460755410610bf85760405162461bcd60e51b815260206004820152601060248201526f14dbd99d0818d85c081c995858da195960821b6044820152606401610953565b610c82565b600260745460ff166002811115610c1657610c16613c7c565b14610c825760405162461bcd60e51b815260206004820152603660248201527f43616e6e6f7420776974686472617720636f6e747269627574696f6e20626563604482015275185d5cd9481c1bdbdb081a5cc818dbdb5c1b195d195960521b6064820152608401610953565b336000908152607a6020526040902054610cae5760405162461bcd60e51b815260040161095390613fa2565b336000908152607a6020526040812054610cc791612fd7565b610cd16001606555565b565b6069546000906012906001600160a01b031615610d6457606960009054906101000a90046001600160a01b03166001600160a01b031663313ce5676040518163ffffffff1660e01b8152600401602060405180830381865afa158015610d3d573d6000803e3d6000fd5b505050506040513d601f19601f82011682018060405250810190610d619190613fe4565b90505b919050565b6033546001600160a01b03166001600160a01b03166363a846f8336040516001600160e01b031960e084901b1681526001600160a01b039091166004820152602401602060405180830381865afa158015610dc8573d6000803e3d6000fd5b505050506040513d601f19601f82011682018060405250810190610dec9190613f50565b80610e0157506033546001600160a01b031633145b610e1d5760405162461bcd60e51b815260040161095390613f6d565b600060745460ff166002811115610e3657610e36613c7c565b14610e535760405162461bcd60e51b815260040161095390614001565b426071541015610e985760405162461bcd60e51b815260206004820152601060248201526f141bdbdb081a185cc81cdd185c9d195960821b6044820152606401610953565b600060745460ff166002811115610eb157610eb1613c7c565b14610ece5760405162461bcd60e51b815260040161095390614051565b60715482118015610ee157506072548211155b8015610eed5750818110155b8015610efb57506072548111155b610f3a5760405162461bcd60e51b815260206004820152601060248201526f496e76616c696420456e642054696d6560801b6044820152606401610953565b608582905560838190556082805460ff1916600117905560408051428152602081018490529081018290527f054b7630ac3c7fbb21edb0b243a27d398714ab6b47d0890648134ea9ff3199be9060600160405180910390a15050565b610f9e6130d7565b610fa9828483613131565b60408051338152602081018390526001600160a01b03841681830152905130917fa458f9e7019e9eb7aba580a27c3717307289404ba1cedd22b85606d7a2d19fe3919081900360600190a2505050565b600061100482613159565b92915050565b6033546001600160a01b03166001600160a01b03166363a846f8336040516001600160e01b031960e084901b1681526001600160a01b039091166004820152602401602060405180830381865afa158015611069573d6000803e3d6000fd5b505050506040513d601f19601f8201168201806040525081019061108d9190613f50565b806110a257506033546001600160a01b031633145b6110be5760405162461bcd60e51b815260040161095390613f6d565b60725442101561111c5760405162461bcd60e51b8152602060048201526024808201527f4974206973206e6f742074696d6520746f207769746864726177206c6566746f6044820152637665727360e01b6064820152608401610953565b606f54607554106111815760405162461bcd60e51b815260206004820152602960248201527f536f66742063617020726561636865642c2063616c6c2066696e616c697a65286044820152680a481a5b9cdd19585960ba1b6064820152608401610953565b606a546068546040516370a0823160e01b8152306004820152610cd1926001600160a01b0390811692169082906370a0823190602401602060405180830381865afa1580156111d4573d6000803e3d6000fd5b505050506040513d601f19601f820116820180604052508101906111f89190614096565b613255565b6033546001600160a01b03166001600160a01b03166363a846f8336040516001600160e01b031960e084901b1681526001600160a01b039091166004820152602401602060405180830381865afa15801561125c573d6000803e3d6000fd5b505050506040513d601f19601f820116820180604052508101906112809190613f50565b8061129557506033546001600160a01b031633145b6112b15760405162461bcd60e51b815260040161095390613f6d565b600060745460ff1660028111156112ca576112ca613c7c565b146112e75760405162461bcd60e51b815260040161095390614001565b606b54604080519182526020820183905230917fc42fd368234734e114fdd21ad5a5625751956838be3a0c80912971e23ed76dc8910160405180910390a2606b55565b611332612dcc565b600160745460ff16600281111561134b5761134b613c7c565b146113a25760405162461bcd60e51b815260206004820152602160248201527f4f776e657220686173206e6f7420636c6f7365642074686520706f6f6c2079656044820152601d60fa1b6064820152608401610953565b42607e5411156113f45760405162461bcd60e51b815260206004820152601b60248201527f706f6f6c207374696c6c206e6f742066696e616c697a656421212100000000006044820152606401610953565b336000908152607b6020908152604080832054607c909252909120548115801561141c575080155b1561148e57600061142b610cd3565b336000908152607a6020526040902054606b5491925061144b91836133ca565b336000908152607b6020526040902081905592508261147c5760405162461bcd60e51b8152600401610953906140af565b60765461148990846133f2565b607655505b607f54600090156114a9576114a233613159565b90506114bd565b8183106114bd576114ba8383612e25565b90505b6000811161150d5760405162461bcd60e51b815260206004820152601d60248201527f4e6f20746f6b656e206176616c69626c6520666f7220636c61696d21210000006044820152606401610953565b336000908152607c60205260408120805483929061152c908490614111565b909155505060775461153e90826133f2565b607755606a54611558906001600160a01b03163383613255565b60408051848152602081018390523381830152905130917fca8bf70624ec0ecfc925e5746a0e4625afe01129043c1c7201c7ce01075ea3ac919081900360600190a2505050610cd16001606555565b600060608080808460036040519080825280602002602001820160405280156115da578160200160208202803683370190505b50604080516008808252610120820190925291925060009190602082016101008036833750506074549192505060ff16600281111561161b5761161b613c7c565b8260008151811061162e5761162e614124565b60ff9283166020918202929092010152607454610100900416600281111561165857611658613c7c565b8260018151811061166b5761166b614124565b60ff909216602092830291909101820152606a546040805163313ce56760e01b815290516001600160a01b039092169263313ce567926004808401938290030181865afa1580156116c0573d6000803e3d6000fd5b505050506040513d601f19601f820116820180604052508101906116e49190613fe4565b826002815181106116f7576116f7614124565b602002602001019060ff16908160ff16815250506071548160008151811061172157611721614124565b6020026020010181815250506072548160018151811061174357611743614124565b6020026020010181815250506075548160028151811061176557611765614124565b6020026020010181815250506070548160038151811061178757611787614124565b602002602001018181525050606f54816004815181106117a9576117a9614124565b602002602001018181525050606d54816005815181106117cb576117cb614124565b602002602001018181525050606e54816006815181106117ed576117ed614124565b602002602001018181525050606b548160078151811061180f5761180f614124565b6020908102919091010152606a54604080516306fdde0360e01b815290516001600160a01b03909216918491849184916306fdde039160048083019260009291908290030181865afa158015611869573d6000803e3d6000fd5b505050506040513d6000823e601f3d908101601f19168201604052611891919081019061413a565b606a60009054906101000a90046001600160a01b03166001600160a01b03166395d89b416040518163ffffffff1660e01b8152600401600060405180830381865afa1580156118e4573d6000803e3d6000fd5b505050506040513d6000823e601f3d908101601f1916820160405261190c919081019061413a565b9650965096509650965050509091929394565b6000611929612dcc565b600060745460ff16600281111561194257611942613c7c565b1461195f5760405162461bcd60e51b8152600401610953906141dc565b6071544210158015611972575060725442105b6119be5760405162461bcd60e51b815260206004820152601860248201527f596f752063616e206e6f74207769746864726177206e6f7700000000000000006044820152606401610953565b336000908152607a60205260409020546119ea5760405162461bcd60e51b815260040161095390613fa2565b336000908152607a602052604081205460735490919061271090611a0e9084614221565b611a18919061424e565b9050611a248183614270565b9150611a308282612fd7565b600192505050611a406001606555565b90565b611a4b6130d7565b610cd160006133fe565b6033546001600160a01b03166001600160a01b03166363a846f8336040516001600160e01b031960e084901b1681526001600160a01b039091166004820152602401602060405180830381865afa158015611ab4573d6000803e3d6000fd5b505050506040513d601f19601f82011682018060405250810190611ad89190613f50565b80611aed57506033546001600160a01b031633145b611b095760405162461bcd60e51b815260040161095390613f6d565b600060745460ff166002811115611b2257611b22613c7c565b14611b3f5760405162461bcd60e51b815260040161095390614001565b6070546075541480611b605750606d54607554607054611b5e91612e25565b105b80611b7c5750606f5460755410158015611b7c57506072544210155b611bd45760405162461bcd60e51b815260206004820152602360248201527f4974206973206e6f742074696d6520746f2077697468647261774c697175696460448201526269747960e81b6064820152608401610953565b6069546000906001600160a01b0316611bee575047611c5d565b6069546040516370a0823160e01b81523060048201526001600160a01b03909116906370a0823190602401602060405180830381865afa158015611c36573d6000803e3d6000fd5b505050506040513d601f19601f82011682018060405250810190611c5a9190614096565b90505b606954606854611c7a916001600160a01b03908116911683613450565b60695460408051338152602081018490526001600160a01b039092169082015230907f079c4baac171e772db36147a8736604ca5dafce3b3b0f5e18c2ed718c4ba5fa69060600160405180910390a250565b6033546001600160a01b03166001600160a01b03166363a846f8336040516001600160e01b031960e084901b1681526001600160a01b039091166004820152602401602060405180830381865afa158015611d2b573d6000803e3d6000fd5b505050506040513d601f19601f82011682018060405250810190611d4f9190613f50565b80611d6457506033546001600160a01b031633145b611d805760405162461bcd60e51b815260040161095390613f6d565b6082805460ff1916821515908117909155600003611da357600060858190556083555b60405181151581527f0d50ffb8142306f44502939eeb37f97727c319ac3cd8ec196ca88f3338eca9af9060200160405180910390a150565b60008060745460ff166002811115611df557611df5613c7c565b14611e125760405162461bcd60e51b8152600401610953906141dc565b60825460ff168015611e2e5750606c546001600160a01b031615155b8015611e3b575042608354115b15611f11576084544210801590611e53575060855442105b15611f1157606c546000906001600160a01b03166370a08231336040516001600160e01b031960e084901b1681526001600160a01b039091166004820152602401602060405180830381865afa158015611eb1573d6000803e3d6000fd5b505050506040513d601f19601f82011682018060405250810190611ed59190614096565b11611f115760405162461bcd60e51b815260206004820152600c60248201526b24b73b30b634b2102ab9b2b960a11b6044820152606401610953565b6071544210158015611f24575060725442105b611f675760405162461bcd60e51b815260206004820152601460248201527349742773206e6f742074696d6520746f2062757960601b6044820152606401610953565b60705460755410611fac5760405162461bcd60e51b815260206004820152600f60248201526e12185c9918d85c081c995858da1959608a1b6044820152606401610953565b611fb4612dcc565b6069546000906001600160a01b0316611fce575034611fe9565b506069548290611fe9906001600160a01b0316333084612e38565b6000811161202d5760405162461bcd60e51b8152602060048201526011602482015270043616e7420636f6e74726962757465203607c1b6044820152606401610953565b336000908152607a602052604081205461204790836133f2565b9050606d54612063607554607054612e2590919063ffffffff16565b106120ba57606d548110156120ba5760405162461bcd60e51b815260206004820152601c60248201527f4d696e20636f6e747269627574696f6e206e6f742072656163686564000000006044820152606401610953565b606e5481111561210c5760405162461bcd60e51b815260206004820152601c60248201527f436f6e74726962757465206d6f7265207468616e20616c6c6f776564000000006044820152606401610953565b60705460755461211c90846133f2565b111561216a5760405162461bcd60e51b815260206004820152601e60248201527f427579696e6720616d6f756e74206578636565647320686172642063617000006044820152606401610953565b336000908152607a6020526040902081905560755461218990836133f2565b607555606a546001600160a01b0316156122175760006121a7610cd3565b905060006121b884606b54846133ca565b9050600081116121da5760405162461bcd60e51b8152600401610953906140af565b336000908152607b60205260409020546121f490826133f2565b336000908152607b602052604090205560765461221190826133f2565b60765550505b607654604080518481523360208201529081019190915230907fcb193e861d45fd7c3aab9d739b2bb0d4d37c0dde92dde600bbe786af12fbd4509060600160405180910390a2600192505050610d646001606555565b6033546001600160a01b03166001600160a01b03166363a846f8336040516001600160e01b031960e084901b1681526001600160a01b039091166004820152602401602060405180830381865afa1580156122cc573d6000803e3d6000fd5b505050506040513d601f19601f820116820180604052508101906122f09190613f50565b8061230557506033546001600160a01b031633145b6123215760405162461bcd60e51b815260040161095390613f6d565b600060745460ff16600281111561233a5761233a613c7c565b146123575760405162461bcd60e51b8152600401610953906141dc565b60825460ff1680156123735750606c546001600160a01b031615155b8015612380575042608354115b15612456576084544210801590612398575060855442105b1561245657606c546000906001600160a01b03166370a08231336040516001600160e01b031960e084901b1681526001600160a01b039091166004820152602401602060405180830381865afa1580156123f6573d6000803e3d6000fd5b505050506040513d601f19601f8201168201806040525081019061241a9190614096565b116124565760405162461bcd60e51b815260206004820152600c60248201526b24b73b30b634b2102ab9b2b960a11b6044820152606401610953565b6071544210158015612469575060725442105b6124ac5760405162461bcd60e51b815260206004820152601460248201527349742773206e6f742074696d6520746f2062757960601b6044820152606401610953565b607054607554106124f15760405162461bcd60e51b815260206004820152600f60248201526e12185c9918d85c081c995858da1959608a1b6044820152606401610953565b4260838190556082805460ff191690556040805182815260208101929092527f4e623178016952b0902c5d81094147072b900dc98660b4f3ef890b6996b58bac910160405180910390a1565b600054610100900460ff161580801561255d5750600054600160ff909116105b806125775750303b158015612577575060005460ff166001145b6125da5760405162461bcd60e51b815260206004820152602e60248201527f496e697469616c697a61626c653a20636f6e747261637420697320616c72656160448201526d191e481a5b9a5d1a585b1a5e995960921b6064820152608401610953565b6000805460ff1916600117905580156125fd576000805461ff0019166101001790555b8360e001518460c00151111561267b5760405162461bcd60e51b815260206004820152603960248201527f4d696e20636f6e747269627574696f6e20616d6f756e74206d7573742062652060448201527f6c657373207468616e206f7220657175616c20746f206d6178000000000000006064820152608401610953565b610120840151610100850151612692906002613473565b101580156126aa575083610120015184610100015111155b80156126bb57506000846101200151115b6127115760405162461bcd60e51b815260206004820152602160248201527f536f6674636170206d757374206265203e3d20353025206f66206861726463616044820152600760fc1b6064820152608401610953565b61271d42610258614111565b8461014001511015612799576040805162461bcd60e51b81526020600482015260248101919091527f53746172742074696d652073686f756c6420626520696e20746865206675747560448201527f72652c206174206c65617374203130206d696e757465732066726f6d206e6f776064820152608401610953565b836101600151846101400151106127fc5760405162461bcd60e51b815260206004820152602160248201527f456e642074696d65206d7573742062652061667465722073746172742074696d6044820152606560f81b6064820152608401610953565b612710846101800151106128495760405162461bcd60e51b8152602060048201526014602482015273496e76616c6964206269707320666f722054474560601b6044820152606401610953565b612710846101c00151106128985760405162461bcd60e51b8152602060048201526016602482015275496e76616c6964206269707320666f72206379636c6560501b6044820152606401610953565b612710846101c001518561018001516128b19190614111565b111561291a5760405162461bcd60e51b815260206004820152603260248201527f53756d206f66205447452062707320616e64206379636c652073686f756c642060448201527106265206c657373207468616e2031303030360741b6064820152608401610953565b6102208401516020015115612a155783610220015160200151846101400151106129a05760405162461bcd60e51b815260206004820152603160248201527f50726573616c652053746172742074696d65206d757374206265206265666f72604482015270652054696572203120656e642074696d6560781b6064820152608401610953565b836102200151602001518461016001511015612a155760405162461bcd60e51b815260206004820152602e60248201527f50726573616c6520456e642074696d65206d757374206265206166746572205460448201526d696572203120656e642074696d6560901b6064820152608401610953565b61020084015115612aa85783610200015184610160015110158015612a435750836102000151846101400151105b612aa85760405162461bcd60e51b815260206004820152603060248201527f50726573616c6520456e642074696d65206d757374206265206166746572205060448201526f75626c69632053746172742054696d6560801b6064820152608401610953565b612ab061347f565b61022084015180516084556020015160855560608401516001600160a01b031615612afa576060840151606c80546001600160a01b0319166001600160a01b039092169190911790555b60408401516073558251612b0d90612d53565b6020830151606880546001600160a01b03199081166001600160a01b039384161790915560a0860151606b5560c0860151606d5560e0860151606e55610100860151606f55610120860151607055610140860151607155610160860151607255608080870151606980549093169316929092179055607480546066805460ff871660ff199182161790915561ffff199091169091556101e08601516082805491151591909216179055610200850151608355610180850151607f556101a085015190556101c08401516081558015612c1f576000805461ff0019169055604051600181527f7f26b83ff96e1f2b6a682f133852f6798a09c465da95921460cefb38474024989060200160405180910390a15b50505050565b6033546001600160a01b03166001600160a01b03166363a846f8336040516001600160e01b031960e084901b1681526001600160a01b039091166004820152602401602060405180830381865afa158015612c84573d6000803e3d6000fd5b505050506040513d601f19601f82011682018060405250810190612ca89190613f50565b80612cbd57506033546001600160a01b031633145b612cd95760405162461bcd60e51b815260040161095390613f6d565b600060745460ff166002811115612cf257612cf2613c7c565b14612d0f5760405162461bcd60e51b815260040161095390614051565b6074805460ff1916600217905560405142815230907f36ea5cd5608625e789af0282eecdb4eae1cb7c1cf6d0ec3f9a84f35be850260b9060200160405180910390a2565b612d5b6130d7565b6001600160a01b038116612dc05760405162461bcd60e51b815260206004820152602660248201527f4f776e61626c653a206e6577206f776e657220697320746865207a65726f206160448201526564647265737360d01b6064820152608401610953565b612dc9816133fe565b50565b600260655403612e1e5760405162461bcd60e51b815260206004820152601f60248201527f5265656e7472616e637947756172643a207265656e7472616e742063616c6c006044820152606401610953565b6002606555565b6000612e318284614270565b9392505050565b836001600160a01b038116612e5f5760405162461bcd60e51b815260040161095390614283565b836001600160a01b038116612e865760405162461bcd60e51b815260040161095390614283565b836001600160a01b038116612ead5760405162461bcd60e51b815260040161095390614283565b836040516370a0823160e01b81526001600160a01b038781166004830152600091908a16906370a0823190602401602060405180830381865afa158015612ef8573d6000803e3d6000fd5b505050506040513d601f19601f82011682018060405250810190612f1c9190614096565b9050612f336001600160a01b038a168989896134ae565b6040516370a0823160e01b81526001600160a01b038881166004830152600091908b16906370a0823190602401602060405180830381865afa158015612f7d573d6000803e3d6000fd5b505050506040513d601f19601f82011682018060405250810190612fa19190614096565b905086612fae8383614270565b14612fcb5760405162461bcd60e51b8152600401610953906142ac565b50505050505050505050565b336000908152607b6020526040902054607654612ff391612e25565b607655336000908152607d6020526040902082905561301e61301583836133f2565b607854906133f2565b607855336000908152607a60209081526040808320839055607b90915281205561305461304b83836133f2565b60755490612e25565b60755560695461306e906001600160a01b03163384613450565b801561309157606954606854613091916001600160a01b03908116911683613450565b60408051838152602081018390523381830152905130917f4230ca4b81812e171b18897e0df85b87676c66d032be38fbe8376d987fb36913919081900360600190a25050565b6033546001600160a01b03163314610cd15760405162461bcd60e51b815260206004820181905260248201527f4f776e61626c653a2063616c6c6572206973206e6f7420746865206f776e65726044820152606401610953565b6001600160a01b03831661314e576131498282613519565b505050565b613149838383613554565b6001600160a01b0381166000908152607b6020908152604080832054607c90925282205481830361318e575060009392505050565b81811061319f575060009392505050565b607e544210156131b3575060009392505050565b6080546000036131c7575060009392505050565b60006131d883607f546127106135bf565b905060006131eb846081546127106135bf565b905060008282608054607e54426132029190614270565b61320c919061424e565b6132169190614221565b6132209190614111565b905060008582111561323d576132368587614270565b905061324a565b6132478583614270565b90505b979650505050505050565b826001600160a01b03811661327c5760405162461bcd60e51b815260040161095390614283565b826001600160a01b0381166132a35760405162461bcd60e51b815260040161095390614283565b826040516370a0823160e01b81526001600160a01b038681166004830152600091908816906370a0823190602401602060405180830381865afa1580156132ee573d6000803e3d6000fd5b505050506040513d601f19601f820116820180604052508101906133129190614096565b90506133286001600160a01b03881687876136a9565b6040516370a0823160e01b81526001600160a01b038781166004830152600091908916906370a0823190602401602060405180830381865afa158015613372573d6000803e3d6000fd5b505050506040513d601f19601f820116820180604052508101906133969190614096565b9050856133a38383614270565b146133c05760405162461bcd60e51b8152600401610953906142ac565b5050505050505050565b60006133ea6133da83600a6143ee565b6133e48686613473565b906136d9565b949350505050565b6000612e318284614111565b603380546001600160a01b038381166001600160a01b0319831681179093556040519116919082907f8be0079c531659141344cd1fd0a4f28419497f9722a3daafe3b4186f6b6457e090600090a35050565b6001600160a01b0383166134685761314982826136e5565b613149838383613255565b6000612e318284614221565b600054610100900460ff166134a65760405162461bcd60e51b8152600401610953906143fd565b610cd1613757565b6040516001600160a01b0380851660248301528316604482015260648101829052612c1f9085906323b872dd60e01b906084015b60408051601f198184030181529190526020810180516001600160e01b03166001600160e01b031990931692909217909152613787565b816001600160a01b0381166135405760405162461bcd60e51b815260040161095390614283565b81612c1f6001600160a01b0385168461385c565b826001600160a01b03811661357b5760405162461bcd60e51b815260040161095390614283565b826001600160a01b0381166135a25760405162461bcd60e51b815260040161095390614283565b826135b76001600160a01b03871686866136a9565b505050505050565b60008080600019858709858702925082811083820303915050806000036135f9578382816135ef576135ef614238565b0492505050612e31565b8084116136405760405162461bcd60e51b81526020600482015260156024820152744d6174683a206d756c446976206f766572666c6f7760581b6044820152606401610953565b60008486880960026001871981018816978890046003810283188082028403028082028403028082028403028082028403028082028403029081029092039091026000889003889004909101858311909403939093029303949094049190911702949350505050565b6040516001600160a01b03831660248201526044810182905261314990849063a9059cbb60e01b906064016134e2565b6000612e31828461424e565b816001600160a01b03811661370c5760405162461bcd60e51b815260040161095390614283565b816001600160a01b038416803190613724908561385c565b6001600160a01b038516318461373a8383614270565b146135b75760405162461bcd60e51b8152600401610953906142ac565b600054610100900460ff1661377e5760405162461bcd60e51b8152600401610953906143fd565b610cd1336133fe565b60006137dc826040518060400160405280602081526020017f5361666545524332303a206c6f772d6c6576656c2063616c6c206661696c6564815250856001600160a01b03166139759092919063ffffffff16565b90508051600014806137fd5750808060200190518101906137fd9190613f50565b6131495760405162461bcd60e51b815260206004820152602a60248201527f5361666545524332303a204552433230206f7065726174696f6e20646964206e6044820152691bdd081cdd58d8d9595960b21b6064820152608401610953565b804710156138ac5760405162461bcd60e51b815260206004820152601d60248201527f416464726573733a20696e73756666696369656e742062616c616e63650000006044820152606401610953565b6000826001600160a01b03168260405160006040518083038185875af1925050503d80600081146138f9576040519150601f19603f3d011682016040523d82523d6000602084013e6138fe565b606091505b50509050806131495760405162461bcd60e51b815260206004820152603a60248201527f416464726573733a20756e61626c6520746f2073656e642076616c75652c207260448201527f6563697069656e74206d617920686176652072657665727465640000000000006064820152608401610953565b60606133ea848460008585600080866001600160a01b0316858760405161399c9190614448565b60006040518083038185875af1925050503d80600081146139d9576040519150601f19603f3d011682016040523d82523d6000602084013e6139de565b606091505b509150915061324a8783838760608315613a59578251600003613a52576001600160a01b0385163b613a525760405162461bcd60e51b815260206004820152601d60248201527f416464726573733a2063616c6c20746f206e6f6e2d636f6e74726163740000006044820152606401610953565b50816133ea565b6133ea8383815115613a6e5781518083602001fd5b8060405162461bcd60e51b81526004016109539190614464565b80356001600160a01b0381168114610d6457600080fd5b60008060408385031215613ab257600080fd5b613abb83613a88565b946020939093013593505050565b60008060408385031215613adc57600080fd5b50508035926020909101359150565b600060208284031215613afd57600080fd5b612e3182613a88565b600080600060608486031215613b1b57600080fd5b613b2484613a88565b9250613b3260208501613a88565b9150604084013590509250925092565b600060208284031215613b5457600080fd5b5035919050565b600081518084526020808501945080840160005b83811015613b8b57815187529582019590820190600101613b6f565b509495945050505050565b60005b83811015613bb1578181015183820152602001613b99565b50506000910152565b60008151808452613bd2816020860160208601613b96565b601f01601f19169290920160200192915050565b6001600160a01b038616815260a060208083018290528651918301829052600091878201919060c0850190845b81811015613c3257845160ff1683529383019391830191600101613c13565b50508481036040860152613c468189613b5b565b925050508281036060840152613c5c8186613bba565b90508281036080840152613c708185613bba565b98975050505050505050565b634e487b7160e01b600052602160045260246000fd5b60038110612dc957634e487b7160e01b600052602160045260246000fd5b60208101613cbd83613c92565b91905290565b8015158114612dc957600080fd5b8035610d6481613cc3565b600060208284031215613cee57600080fd5b8135612e3181613cc3565b634e487b7160e01b600052604160045260246000fd5b604051610240810167ffffffffffffffff81118282101715613d3357613d33613cf9565b60405290565b600060408284031215613d4b57600080fd5b6040516040810181811067ffffffffffffffff82111715613d6e57613d6e613cf9565b604052823581526020928301359281019290925250919050565b600082601f830112613d9957600080fd5b6040516040810181811067ffffffffffffffff82111715613dbc57613dbc613cf9565b8060405250806040840185811115613dd357600080fd5b845b81811015613df457613de681613a88565b835260209283019201613dd5565b509195945050505050565b60ff81168114612dc957600080fd5b8035610d6481613dff565b60008060008385036102c0811215613e3057600080fd5b61026080821215613e4057600080fd5b613e48613d0f565b9150613e5386613a88565b82526020860135602083015260408601356040830152613e7560608701613a88565b6060830152613e8660808701613a88565b608083015260a0868101359083015260c0808701359083015260e08087013590830152610100808701359083015261012080870135908301526101408087013590830152610160808701359083015261018080870135908301526101a080870135908301526101c080870135908301526101e0613f04818801613cd1565b908301526102008681013590830152610220613f2288828901613d39565b8184015250819450613f3687828801613d88565b93505050613f476102a08501613e0e565b90509250925092565b600060208284031215613f6257600080fd5b8151612e3181613cc3565b6020808252818101527f4f776e61626c653a2063616c6c6572206973206e6f74207468652061646d696e604082015260600190565b60208082526022908201527f596f7520446f6e2774204861766520456e6f75676820636f6e7472696275746960408201526137b760f11b606082015260800190565b600060208284031215613ff657600080fd5b8151612e3181613dff565b60208082526030908201527f506f6f6c206973206569746865722073746172746564206f7220636f6d706c6560408201526f1d1959081bdc8818d85b98d95b1b195960821b606082015260800190565b60208082526025908201527f506f6f6c20776173206569746865722066696e6973686564206f722063616e63604082015264195b1b195960da1b606082015260800190565b6000602082840312156140a857600080fd5b5051919050565b6020808252602c908201527f436f6e747269627574696f6e20746f6f20736d616c6c20746f2070726f64756360408201526b6520616e7920766f6c756d6560a01b606082015260800190565b634e487b7160e01b600052601160045260246000fd5b80820180821115611004576110046140fb565b634e487b7160e01b600052603260045260246000fd5b60006020828403121561414c57600080fd5b815167ffffffffffffffff8082111561416457600080fd5b818401915084601f83011261417857600080fd5b81518181111561418a5761418a613cf9565b604051601f8201601f19908116603f011681019083821181831017156141b2576141b2613cf9565b816040528281528760208487010111156141cb57600080fd5b61324a836020830160208801613b96565b60208082526025908201527f506f6f6c2069732065697468657220636f6d706c65746564206f722063616e63604082015264195b1b195960da1b606082015260800190565b8082028115828204841417611004576110046140fb565b634e487b7160e01b600052601260045260246000fd5b60008261426b57634e487b7160e01b600052601260045260246000fd5b500490565b81810381811115611004576110046140fb565b6020808252600f908201526e494e56414c4944204144445245535360881b604082015260600190565b602080825260409082018190527f4e6f7420656e6f75676820746f6b656e20776173207472616e73666572726564908201527f20496620746178207365742052656d6f7665204f757220416464726573732121606082015260800190565b600181815b8085111561434557816000190482111561432b5761432b6140fb565b8085161561433857918102915b93841c939080029061430f565b509250929050565b60008261435c57506001611004565b8161436957506000611004565b816001811461437f5760028114614389576143a5565b6001915050611004565b60ff84111561439a5761439a6140fb565b50506001821b611004565b5060208310610133831016604e8410600b84101617156143c8575081810a611004565b6143d2838361430a565b80600019048211156143e6576143e66140fb565b029392505050565b6000612e3160ff84168361434d565b6020808252602b908201527f496e697469616c697a61626c653a20636f6e7472616374206973206e6f74206960408201526a6e697469616c697a696e6760a81b606082015260800190565b6000825161445a818460208701613b96565b9190910192915050565b602081526000612e316020830184613bba56fea2646970667358221220af07216c099b6d528d2ee6c992ea06c8dd2d8b7fb125281bdec7c91eb206241964736f6c63430008110033",
  "devdoc": {
    "kind": "dev",
    "methods": {
      "owner()": {
        "details": "Returns the address of the current owner."
      },
      "renounceOwnership()": {
        "details": "Leaves the contract without owner. It will not be possible to call `onlyOwner` functions. Can only be called by the current owner. NOTE: Renouncing ownership will leave the contract without an owner, thereby disabling any functionality that is only available to the owner."
      },
      "transferOwnership(address)": {
        "details": "Transfers ownership of the contract to a new account (`newOwner`). Can only be called by the current owner."
      }
    },
    "version": 1
  },
  "userdoc": {
    "kind": "user",
    "methods": {},
    "version": 1
  },
  "storageLayout": {
    "storage": [
      {
        "astId": 138,
        "contract": "contracts/Pool.sol:Pool",
        "label": "_initialized",
        "offset": 0,
        "slot": "0",
        "type": "t_uint8"
      },
      {
        "astId": 141,
        "contract": "contracts/Pool.sol:Pool",
        "label": "_initializing",
        "offset": 1,
        "slot": "0",
        "type": "t_bool"
      },
      {
        "astId": 1161,
        "contract": "contracts/Pool.sol:Pool",
        "label": "__gap",
        "offset": 0,
        "slot": "1",
        "type": "t_array(t_uint256)50_storage"
      },
      {
        "astId": 10,
        "contract": "contracts/Pool.sol:Pool",
        "label": "_owner",
        "offset": 0,
        "slot": "51",
        "type": "t_address"
      },
      {
        "astId": 130,
        "contract": "contracts/Pool.sol:Pool",
        "label": "__gap",
        "offset": 0,
        "slot": "52",
        "type": "t_array(t_uint256)49_storage"
      },
      {
        "astId": 2119,
        "contract": "contracts/Pool.sol:Pool",
        "label": "_status",
        "offset": 0,
        "slot": "101",
        "type": "t_uint256"
      },
      {
        "astId": 5586,
        "contract": "contracts/Pool.sol:Pool",
        "label": "VERSION",
        "offset": 0,
        "slot": "102",
        "type": "t_uint8"
      },
      {
        "astId": 5589,
        "contract": "contracts/Pool.sol:Pool",
        "label": "MINIMUM_LOCK_DAYS",
        "offset": 0,
        "slot": "103",
        "type": "t_uint256"
      },
      {
        "astId": 5599,
        "contract": "contracts/Pool.sol:Pool",
        "label": "feeWallet",
        "offset": 0,
        "slot": "104",
        "type": "t_address_payable"
      },
      {
        "astId": 5601,
        "contract": "contracts/Pool.sol:Pool",
        "label": "payment_currency",
        "offset": 0,
        "slot": "105",
        "type": "t_address"
      },
      {
        "astId": 5603,
        "contract": "contracts/Pool.sol:Pool",
        "label": "token",
        "offset": 0,
        "slot": "106",
        "type": "t_address"
      },
      {
        "astId": 5605,
        "contract": "contracts/Pool.sol:Pool",
        "label": "rate",
        "offset": 0,
        "slot": "107",
        "type": "t_uint256"
      },
      {
        "astId": 5608,
        "contract": "contracts/Pool.sol:Pool",
        "label": "nftAddress",
        "offset": 0,
        "slot": "108",
        "type": "t_contract(IERC721)3391"
      },
      {
        "astId": 5610,
        "contract": "contracts/Pool.sol:Pool",
        "label": "min_payment",
        "offset": 0,
        "slot": "109",
        "type": "t_uint256"
      },
      {
        "astId": 5612,
        "contract": "contracts/Pool.sol:Pool",
        "label": "max_payment",
        "offset": 0,
        "slot": "110",
        "type": "t_uint256"
      },
      {
        "astId": 5614,
        "contract": "contracts/Pool.sol:Pool",
        "label": "softCap",
        "offset": 0,
        "slot": "111",
        "type": "t_uint256"
      },
      {
        "astId": 5616,
        "contract": "contracts/Pool.sol:Pool",
        "label": "hardCap",
        "offset": 0,
        "slot": "112",
        "type": "t_uint256"
      },
      {
        "astId": 5618,
        "contract": "contracts/Pool.sol:Pool",
        "label": "startTime",
        "offset": 0,
        "slot": "113",
        "type": "t_uint256"
      },
      {
        "astId": 5620,
        "contract": "contracts/Pool.sol:Pool",
        "label": "endTime",
        "offset": 0,
        "slot": "114",
        "type": "t_uint256"
      },
      {
        "astId": 5622,
        "contract": "contracts/Pool.sol:Pool",
        "label": "emergencyWithdrawFees",
        "offset": 0,
        "slot": "115",
        "type": "t_uint256"
      },
      {
        "astId": 5625,
        "contract": "contracts/Pool.sol:Pool",
        "label": "poolState",
        "offset": 0,
        "slot": "116",
        "type": "t_enum(PoolState)5593"
      },
      {
        "astId": 5628,
        "contract": "contracts/Pool.sol:Pool",
        "label": "poolType",
        "offset": 1,
        "slot": "116",
        "type": "t_enum(PoolType)5597"
      },
      {
        "astId": 5630,
        "contract": "contracts/Pool.sol:Pool",
        "label": "totalRaised",
        "offset": 0,
        "slot": "117",
        "type": "t_uint256"
      },
      {
        "astId": 5632,
        "contract": "contracts/Pool.sol:Pool",
        "label": "totalVolumePurchased",
        "offset": 0,
        "slot": "118",
        "type": "t_uint256"
      },
      {
        "astId": 5634,
        "contract": "contracts/Pool.sol:Pool",
        "label": "totalClaimed",
        "offset": 0,
        "slot": "119",
        "type": "t_uint256"
      },
      {
        "astId": 5636,
        "contract": "contracts/Pool.sol:Pool",
        "label": "totalRefunded",
        "offset": 0,
        "slot": "120",
        "type": "t_uint256"
      },
      {
        "astId": 5638,
        "contract": "contracts/Pool.sol:Pool",
        "label": "tvl",
        "offset": 0,
        "slot": "121",
        "type": "t_uint256"
      },
      {
        "astId": 5642,
        "contract": "contracts/Pool.sol:Pool",
        "label": "contributionOf",
        "offset": 0,
        "slot": "122",
        "type": "t_mapping(t_address,t_uint256)"
      },
      {
        "astId": 5646,
        "contract": "contracts/Pool.sol:Pool",
        "label": "purchasedOf",
        "offset": 0,
        "slot": "123",
        "type": "t_mapping(t_address,t_uint256)"
      },
      {
        "astId": 5650,
        "contract": "contracts/Pool.sol:Pool",
        "label": "claimedOf",
        "offset": 0,
        "slot": "124",
        "type": "t_mapping(t_address,t_uint256)"
      },
      {
        "astId": 5654,
        "contract": "contracts/Pool.sol:Pool",
        "label": "refundedOf",
        "offset": 0,
        "slot": "125",
        "type": "t_mapping(t_address,t_uint256)"
      },
      {
        "astId": 5656,
        "contract": "contracts/Pool.sol:Pool",
        "label": "tgeDate",
        "offset": 0,
        "slot": "126",
        "type": "t_uint256"
      },
      {
        "astId": 5658,
        "contract": "contracts/Pool.sol:Pool",
        "label": "tgeBps",
        "offset": 0,
        "slot": "127",
        "type": "t_uint256"
      },
      {
        "astId": 5660,
        "contract": "contracts/Pool.sol:Pool",
        "label": "cycle",
        "offset": 0,
        "slot": "128",
        "type": "t_uint256"
      },
      {
        "astId": 5662,
        "contract": "contracts/Pool.sol:Pool",
        "label": "cycleBps",
        "offset": 0,
        "slot": "129",
        "type": "t_uint256"
      },
      {
        "astId": 5664,
        "contract": "contracts/Pool.sol:Pool",
        "label": "useWhitelisting",
        "offset": 0,
        "slot": "130",
        "type": "t_bool"
      },
      {
        "astId": 5666,
        "contract": "contracts/Pool.sol:Pool",
        "label": "publicStartTime",
        "offset": 0,
        "slot": "131",
        "type": "t_uint256"
      },
      {
        "astId": 5669,
        "contract": "contracts/Pool.sol:Pool",
        "label": "tier1",
        "offset": 0,
        "slot": "132",
        "type": "t_struct(Tier)8985_storage"
      }
    ],
    "types": {
      "t_address": {
        "encoding": "inplace",
        "label": "address",
        "numberOfBytes": "20"
      },
      "t_address_payable": {
        "encoding": "inplace",
        "label": "address payable",
        "numberOfBytes": "20"
      },
      "t_array(t_uint256)49_storage": {
        "base": "t_uint256",
        "encoding": "inplace",
        "label": "uint256[49]",
        "numberOfBytes": "1568"
      },
      "t_array(t_uint256)50_storage": {
        "base": "t_uint256",
        "encoding": "inplace",
        "label": "uint256[50]",
        "numberOfBytes": "1600"
      },
      "t_bool": {
        "encoding": "inplace",
        "label": "bool",
        "numberOfBytes": "1"
      },
      "t_contract(IERC721)3391": {
        "encoding": "inplace",
        "label": "contract IERC721",
        "numberOfBytes": "20"
      },
      "t_enum(PoolState)5593": {
        "encoding": "inplace",
        "label": "enum Pool.PoolState",
        "numberOfBytes": "1"
      },
      "t_enum(PoolType)5597": {
        "encoding": "inplace",
        "label": "enum Pool.PoolType",
        "numberOfBytes": "1"
      },
      "t_mapping(t_address,t_uint256)": {
        "encoding": "mapping",
        "key": "t_address",
        "label": "mapping(address => uint256)",
        "numberOfBytes": "32",
        "value": "t_uint256"
      },
      "t_struct(Tier)8985_storage": {
        "encoding": "inplace",
        "label": "struct LibTier.Tier",
        "members": [
          {
            "astId": 8982,
            "contract": "contracts/Pool.sol:Pool",
            "label": "startTime",
            "offset": 0,
            "slot": "0",
            "type": "t_uint256"
          },
          {
            "astId": 8984,
            "contract": "contracts/Pool.sol:Pool",
            "label": "endTime",
            "offset": 0,
            "slot": "1",
            "type": "t_uint256"
          }
        ],
        "numberOfBytes": "64"
      },
      "t_uint256": {
        "encoding": "inplace",
        "label": "uint256",
        "numberOfBytes": "32"
      },
      "t_uint8": {
        "encoding": "inplace",
        "label": "uint8",
        "numberOfBytes": "1"
      }
    }
  }
}