{
  "address": "0x0bd0B2852BFeF4Bac14C30D71dD39CfbA615f196",
  "abi": [
    {
      "anonymous": false,
      "inputs": [
        {
          "indexed": true,
          "internalType": "address",
          "name": "pool_address",
          "type": "address"
        },
        {
          "indexed": false,
          "internalType": "address",
          "name": "_old",
          "type": "address"
        },
        {
          "indexed": false,
          "internalType": "address",
          "name": "_new",
          "type": "address"
        }
      ],
      "name": "GovernanceChanged",
      "type": "event"
    },
    {
      "anonymous": false,
      "inputs": [
        {
          "indexed": false,
          "internalType": "uint8",
          "name": "version",
          "type": "uint8"
        }
      ],
      "name": "Initialized",
      "type": "event"
    },
    {
      "anonymous": false,
      "inputs": [
        {
          "indexed": true,
          "internalType": "address",
          "name": "previousOwner",
          "type": "address"
        },
        {
          "indexed": true,
          "internalType": "address",
          "name": "newOwner",
          "type": "address"
        }
      ],
      "name": "OwnershipTransferred",
      "type": "event"
    },
    {
      "anonymous": false,
      "inputs": [
        {
          "indexed": false,
          "internalType": "string",
          "name": "_feeType",
          "type": "string"
        },
        {
          "indexed": false,
          "internalType": "uint256",
          "name": "_newFees",
          "type": "uint256"
        },
        {
          "indexed": false,
          "internalType": "uint256",
          "name": "_oldFees",
          "type": "uint256"
        }
      ],
      "name": "PoolFeesUpdated",
      "type": "event"
    },
    {
      "anonymous": false,
      "inputs": [
        {
          "indexed": true,
          "internalType": "address",
          "name": "pool_address",
          "type": "address"
        },
        {
          "components": [
            {
              "internalType": "address",
              "name": "governance",
              "type": "address"
            },
            {
              "internalType": "uint256",
              "name": "salt",
              "type": "uint256"
            },
            {
              "internalType": "uint256",
              "name": "emergencyWithdrawFees",
              "type": "uint256"
            },
            {
              "internalType": "address",
              "name": "nftAddress",
              "type": "address"
            },
            {
              "internalType": "address",
              "name": "payment_currency",
              "type": "address"
            },
            {
              "internalType": "uint256",
              "name": "rate",
              "type": "uint256"
            },
            {
              "internalType": "uint256",
              "name": "min_payment",
              "type": "uint256"
            },
            {
              "internalType": "uint256",
              "name": "max_payment",
              "type": "uint256"
            },
            {
              "internalType": "uint256",
              "name": "softCap",
              "type": "uint256"
            },
            {
              "internalType": "uint256",
              "name": "hardCap",
              "type": "uint256"
            },
            {
              "internalType": "uint256",
              "name": "startTime",
              "type": "uint256"
            },
            {
              "internalType": "uint256",
              "name": "endTime",
              "type": "uint256"
            },
            {
              "internalType": "uint256",
              "name": "tgeBps",
              "type": "uint256"
            },
            {
              "internalType": "uint256",
              "name": "cycle",
              "type": "uint256"
            },
            {
              "internalType": "uint256",
              "name": "cycleBps",
              "type": "uint256"
            },
            {
              "internalType": "bool",
              "name": "useWhitelist",
              "type": "bool"
            },
            {
              "internalType": "uint256",
              "name": "publicStartTime",
              "type": "uint256"
            },
            {
              "components": [
                {
                  "internalType": "uint256",
                  "name": "startTime",
                  "type": "uint256"
                },
                {
                  "internalType": "uint256",
                  "name": "endTime",
                  "type": "uint256"
                }
              ],
              "internalType": "struct LibTier.Tier",
              "name": "tier1",
              "type": "tuple"
            }
          ],
          "indexed": false,
          "internalType": "struct LibPresale.Presale",
          "name": "presale",
          "type": "tuple"
        }
      ],
      "name": "PresalePoolCreated",
      "type": "event"
    },
    {
      "anonymous": false,
      "inputs": [
        {
          "indexed": false,
          "internalType": "uint256",
          "name": "_newVersion",
          "type": "uint256"
        },
        {
          "indexed": false,
          "internalType": "uint256",
          "name": "_oldVersion",
          "type": "uint256"
        }
      ],
      "name": "VersionChanged",
      "type": "event"
    },
    {
      "inputs": [
        {
          "internalType": "address",
          "name": "_toAdd",
          "type": "address"
        }
      ],
      "name": "addAdmin",
      "outputs": [],
      "stateMutability": "nonpayable",
      "type": "function"
    },
    {
      "inputs": [
        {
          "internalType": "address[]",
          "name": "_toAdd",
          "type": "address[]"
        }
      ],
      "name": "addMultiAdmins",
      "outputs": [],
      "stateMutability": "nonpayable",
      "type": "function"
    },
    {
      "inputs": [
        {
          "internalType": "address",
          "name": "",
          "type": "address"
        }
      ],
      "name": "admin",
      "outputs": [
        {
          "internalType": "bool",
          "name": "",
          "type": "bool"
        }
      ],
      "stateMutability": "view",
      "type": "function"
    },
    {
      "inputs": [
        {
          "internalType": "address payable",
          "name": "_receiver",
          "type": "address"
        },
        {
          "internalType": "uint256",
          "name": "_amount",
          "type": "uint256"
        }
      ],
      "name": "bnbLiquidity",
      "outputs": [],
      "stateMutability": "nonpayable",
      "type": "function"
    },
    {
      "inputs": [
        {
          "components": [
            {
              "internalType": "address",
              "name": "governance",
              "type": "address"
            },
            {
              "internalType": "uint256",
              "name": "salt",
              "type": "uint256"
            },
            {
              "internalType": "uint256",
              "name": "emergencyWithdrawFees",
              "type": "uint256"
            },
            {
              "internalType": "address",
              "name": "nftAddress",
              "type": "address"
            },
            {
              "internalType": "address",
              "name": "payment_currency",
              "type": "address"
            },
            {
              "internalType": "uint256",
              "name": "rate",
              "type": "uint256"
            },
            {
              "internalType": "uint256",
              "name": "min_payment",
              "type": "uint256"
            },
            {
              "internalType": "uint256",
              "name": "max_payment",
              "type": "uint256"
            },
            {
              "internalType": "uint256",
              "name": "softCap",
              "type": "uint256"
            },
            {
              "internalType": "uint256",
              "name": "hardCap",
              "type": "uint256"
            },
            {
              "internalType": "uint256",
              "name": "startTime",
              "type": "uint256"
            },
            {
              "internalType": "uint256",
              "name": "endTime",
              "type": "uint256"
            },
            {
              "internalType": "uint256",
              "name": "tgeBps",
              "type": "uint256"
            },
            {
              "internalType": "uint256",
              "name": "cycle",
              "type": "uint256"
            },
            {
              "internalType": "uint256",
              "name": "cycleBps",
              "type": "uint256"
            },
            {
              "internalType": "bool",
              "name": "useWhitelist",
              "type": "bool"
            },
            {
              "internalType": "uint256",
              "name": "publicStartTime",
              "type": "uint256"
            },
            {
              "components": [
                {
                  "internalType": "uint256",
                  "name": "startTime",
                  "type": "uint256"
                },
                {
                  "internalType": "uint256",
                  "name": "endTime",
                  "type": "uint256"
                }
              ],
              "internalType": "struct LibTier.Tier",
              "name": "tier1",
              "type": "tuple"
            }
          ],
          "internalType": "struct LibPresale.Presale",
          "name": "presale",
          "type": "tuple"
        }
      ],
      "name": "createSale",
      "outputs": [],
      "stateMutability": "payable",
      "type": "function"
    },
    {
      "inputs": [],
      "name": "feeWallet",
      "outputs": [
        {
          "internalType": "address payable",
          "name": "",
          "type": "address"
        }
      ],
      "stateMutability": "view",
      "type": "function"
    },
    {
      "inputs": [
        {
          "internalType": "address",
          "name": "index",
          "type": "address"
        }
      ],
      "name": "getPaymentCurrency",
      "outputs": [
        {
          "internalType": "bool",
          "name": "",
          "type": "bool"
        }
      ],
      "stateMutability": "view",
      "type": "function"
    },
    {
      "inputs": [
        {
          "internalType": "address",
          "name": "_master",
          "type": "address"
        },
        {
          "internalType": "uint8",
          "name": "_version",
          "type": "uint8"
        }
      ],
      "name": "initialize",
      "outputs": [],
      "stateMutability": "nonpayable",
      "type": "function"
    },
    {
      "inputs": [],
      "name": "master",
      "outputs": [
        {
          "internalType": "address",
          "name": "",
          "type": "address"
        }
      ],
      "stateMutability": "view",
      "type": "function"
    },
    {
      "inputs": [],
      "name": "owner",
      "outputs": [
        {
          "internalType": "address",
          "name": "",
          "type": "address"
        }
      ],
      "stateMutability": "view",
      "type": "function"
    },
    {
      "inputs": [
        {
          "internalType": "address",
          "name": "",
          "type": "address"
        }
      ],
      "name": "paymentCurrencies",
      "outputs": [
        {
          "internalType": "bool",
          "name": "",
          "type": "bool"
        }
      ],
      "stateMutability": "view",
      "type": "function"
    },
    {
      "inputs": [
        {
          "internalType": "address",
          "name": "poolAddress",
          "type": "address"
        },
        {
          "internalType": "address",
          "name": "payaddress",
          "type": "address"
        },
        {
          "internalType": "address",
          "name": "tokenAddress",
          "type": "address"
        },
        {
          "internalType": "uint256",
          "name": "tokens",
          "type": "uint256"
        }
      ],
      "name": "poolEmergencyWithdrawToken",
      "outputs": [],
      "stateMutability": "nonpayable",
      "type": "function"
    },
    {
      "inputs": [],
      "name": "poolOwner",
      "outputs": [
        {
          "internalType": "address",
          "name": "",
          "type": "address"
        }
      ],
      "stateMutability": "view",
      "type": "function"
    },
    {
      "inputs": [
        {
          "internalType": "address",
          "name": "_toRemove",
          "type": "address"
        }
      ],
      "name": "removeAdmin",
      "outputs": [],
      "stateMutability": "nonpayable",
      "type": "function"
    },
    {
      "inputs": [
        {
          "internalType": "address[]",
          "name": "_toRemove",
          "type": "address[]"
        }
      ],
      "name": "removeMultiAdmins",
      "outputs": [],
      "stateMutability": "nonpayable",
      "type": "function"
    },
    {
      "inputs": [],
      "name": "renounceOwnership",
      "outputs": [],
      "stateMutability": "nonpayable",
      "type": "function"
    },
    {
      "inputs": [
        {
          "internalType": "address payable",
          "name": "_address",
          "type": "address"
        }
      ],
      "name": "setFeeWallet",
      "outputs": [],
      "stateMutability": "nonpayable",
      "type": "function"
    },
    {
      "inputs": [
        {
          "internalType": "address",
          "name": "_address",
          "type": "address"
        }
      ],
      "name": "setMasterAddress",
      "outputs": [],
      "stateMutability": "nonpayable",
      "type": "function"
    },
    {
      "inputs": [
        {
          "internalType": "address",
          "name": "index",
          "type": "address"
        },
        {
          "internalType": "bool",
          "name": "status",
          "type": "bool"
        }
      ],
      "name": "setPaymentCurrency",
      "outputs": [],
      "stateMutability": "nonpayable",
      "type": "function"
    },
    {
      "inputs": [
        {
          "internalType": "address",
          "name": "_address",
          "type": "address"
        }
      ],
      "name": "setPoolOwner",
      "outputs": [],
      "stateMutability": "nonpayable",
      "type": "function"
    },
    {
      "inputs": [
        {
          "internalType": "uint8",
          "name": "_version",
          "type": "uint8"
        }
      ],
      "name": "setVersion",
      "outputs": [],
      "stateMutability": "nonpayable",
      "type": "function"
    },
    {
      "inputs": [
        {
          "internalType": "address",
          "name": "payaddress",
          "type": "address"
        },
        {
          "internalType": "address",
          "name": "tokenAddress",
          "type": "address"
        },
        {
          "internalType": "uint256",
          "name": "tokens",
          "type": "uint256"
        }
      ],
      "name": "transferAnyERC20Token",
      "outputs": [],
      "stateMutability": "nonpayable",
      "type": "function"
    },
    {
      "inputs": [
        {
          "internalType": "address",
          "name": "newOwner",
          "type": "address"
        }
      ],
      "name": "transferOwnership",
      "outputs": [],
      "stateMutability": "nonpayable",
      "type": "function"
    },
    {
      "inputs": [],
      "name": "version",
      "outputs": [
        {
          "internalType": "uint8",
          "name": "",
          "type": "uint8"
        }
      ],
      "stateMutability": "view",
      "type": "function"
    }
  ],
  "transactionHash": "0xe54d291eaea18266ba95b45475e6736800ae25b8cca7b5aa0191790b7f0b79ee",
  "args": [],
  "numDeployments": 1,
  "solcInputHash": "fcc152414ce513084607c1addc8aa59d",
  "bytecode": "0x608060405234801561001057600080fd5b50611d79806100206000396000f3fe60806040526004361061014b5760003560e01c8063942051e5116100b6578063d493b9ac1161006f578063d493b9ac146103ed578063e11e02fe1461040d578063ee97f7f31461042d578063f25f4b561461044d578063f2fde38b1461046d578063f78203a71461048d57600080fd5b8063942051e514610314578063943b24b21461033457806395bdd4be14610354578063a939b81c1461038d578063c25ade38146103ad578063cf0b2270146103cd57600080fd5b8063647c45ad11610108578063647c45ad1461024d578063704802751461026d578063715018a61461028d57806379a03a89146102a25780638da5cb5b146102c257806390d49b9d146102f457600080fd5b80631785f53c1461015057806320e44c9814610172578063548c9085146101b757806354fd4d50146101ca5780635d06a611146101fd57806363a846f81461021d575b600080fd5b34801561015c57600080fd5b5061017061016b366004611611565b6104ad565b005b34801561017e57600080fd5b506101a261018d366004611611565b60686020526000908152604090205460ff1681565b60405190151581526020015b60405180910390f35b6101706101c536600461170e565b6104fe565b3480156101d657600080fd5b506066546101eb90600160a01b900460ff1681565b60405160ff90911681526020016101ae565b34801561020957600080fd5b50610170610218366004611611565b61076a565b34801561022957600080fd5b506101a2610238366004611611565b60696020526000908152604090205460ff1681565b34801561025957600080fd5b5061017061026836600461180c565b6107bc565b34801561027957600080fd5b50610170610288366004611611565b610834565b34801561029957600080fd5b50610170610873565b3480156102ae57600080fd5b506101706102bd366004611611565b610887565b3480156102ce57600080fd5b506033546001600160a01b03165b6040516001600160a01b0390911681526020016101ae565b34801561030057600080fd5b5061017061030f366004611611565b6108ff565b34801561032057600080fd5b5061017061032f36600461185d565b610951565b34801561034057600080fd5b5061017061034f366004611920565b610a34565b34801561036057600080fd5b506101a261036f366004611611565b6001600160a01b031660009081526068602052604090205460ff1690565b34801561039957600080fd5b506101706103a8366004611955565b610bec565b3480156103b957600080fd5b506101706103c836600461185d565b610c26565b3480156103d957600080fd5b506066546102dc906001600160a01b031681565b3480156103f957600080fd5b50610170610408366004611981565b610cce565b34801561041957600080fd5b506101706104283660046119c2565b610ce6565b34801561043957600080fd5b506065546102dc906001600160a01b031681565b34801561045957600080fd5b506067546102dc906001600160a01b031681565b34801561047957600080fd5b50610170610488366004611611565b610d19565b34801561049957600080fd5b506101706104a83660046119fb565b610d92565b6104b5610e54565b6001600160a01b0381166104c857600080fd5b336001600160a01b038216036104dd57600080fd5b6001600160a01b03166000908152606960205260409020805460ff19169055565b3360009081526069602052604090205460ff168061052657506033546001600160a01b031633145b6105775760405162461bcd60e51b815260206004820181905260248201527f4f776e61626c653a2063616c6c6572206973206e6f74207468652061646d696e60448201526064015b60405180910390fd5b6065546001600160a01b03166105cf5760405162461bcd60e51b815260206004820152601960248201527f706f6f6c2061646472657373206973206e6f7420736574212100000000000000604482015260640161056e565b60808101516001600160a01b031660009081526068602052604090205460ff1615156001148061060a575060808101516001600160a01b0316155b61064e5760405162461bcd60e51b815260206004820152601560248201527424b73b30b634b2103830bcb6b2b73a103a37b5b2b760591b604482015260640161056e565b6067546040516000916001600160a01b03169034908381818185875af1925050503d806000811461069b576040519150601f19603f3d011682016040523d82523d6000602084013e6106a0565b606091505b50509050806106c15760405162461bcd60e51b815260040161056e90611a16565b60008260200151426040516020016106e3929190918252602082015260400190565b60408051601f198184030181529190528051602090910120606554909150600090610717906001600160a01b031683610eae565b90506107238185610f51565b806001600160a01b03167f55a399fedd082233b7e5cfcea369b3e1ed2cf020d3a70a16e296796f6a7788de8560405161075c9190611b6a565b60405180910390a250505050565b610772610e54565b806001600160a01b0381166107995760405162461bcd60e51b815260040161056e90611b79565b50606580546001600160a01b0319166001600160a01b0392909216919091179055565b6107c4610e54565b60405163277327a560e01b81526001600160a01b03848116600483015283811660248301526044820183905285169063277327a590606401600060405180830381600087803b15801561081657600080fd5b505af115801561082a573d6000803e3d6000fd5b5050505050505050565b61083c610e54565b6001600160a01b03811661084f57600080fd5b6001600160a01b03166000908152606960205260409020805460ff19166001179055565b61087b610e54565b6108856000610fda565b565b61088f610e54565b6001600160a01b0381166108dd5760405162461bcd60e51b8152602060048201526015602482015274125b9d985b1a59081059191c995cdcc8199bdd5b99605a1b604482015260640161056e565b606680546001600160a01b0319166001600160a01b0392909216919091179055565b610907610e54565b806001600160a01b03811661092e5760405162461bcd60e51b815260040161056e90611b79565b50606780546001600160a01b0319166001600160a01b0392909216919091179055565b610959610e54565b60005b8151811015610a305760006001600160a01b031682828151811061098257610982611ba2565b60200260200101516001600160a01b03160361099d57600080fd5b336001600160a01b03168282815181106109b9576109b9611ba2565b60200260200101516001600160a01b0316036109d457600080fd5b6000606960008484815181106109ec576109ec611ba2565b6020908102919091018101516001600160a01b03168252810191909152604001600020805460ff191691151591909117905580610a2881611bce565b91505061095c565b5050565b816001600160a01b038116610a5b5760405162461bcd60e51b815260040161056e90611b79565b600054610100900460ff1615808015610a7b5750600054600160ff909116105b80610a955750303b158015610a95575060005460ff166001145b610af85760405162461bcd60e51b815260206004820152602e60248201527f496e697469616c697a61626c653a20636f6e747261637420697320616c72656160448201526d191e481a5b9a5d1a585b1a5e995960921b606482015260840161056e565b6000805460ff191660011790558015610b1b576000805461ff0019166101001790555b610b2361102c565b606580546001600160a01b0319166001600160a01b0386161790556066805460ff60a01b1916600160a01b60ff8616021790557fad6f8124f6081c2622ab3a16acd47af73d52fe87b755c3f897263c58ba3fdbd7805460ff199081166001908117909255336000908152606960205260409020805490911690911790558015610be6576000805461ff0019169055604051600181527f7f26b83ff96e1f2b6a682f133852f6798a09c465da95921460cefb38474024989060200160405180910390a15b50505050565b610bf4610e54565b816001600160a01b038116610c1b5760405162461bcd60e51b815260040161056e90611b79565b81610be6848461105b565b610c2e610e54565b60005b8151811015610a305760006001600160a01b0316828281518110610c5757610c57611ba2565b60200260200101516001600160a01b031603610c7257600080fd5b600160696000848481518110610c8a57610c8a611ba2565b6020908102919091018101516001600160a01b03168252810191909152604001600020805460ff191691151591909117905580610cc681611bce565b915050610c31565b610cd6610e54565b610ce1828483611096565b505050565b610cee610e54565b6001600160a01b03919091166000908152606860205260409020805460ff1916911515919091179055565b610d21610e54565b6001600160a01b038116610d865760405162461bcd60e51b815260206004820152602660248201527f4f776e61626c653a206e6577206f776e657220697320746865207a65726f206160448201526564647265737360d01b606482015260840161056e565b610d8f81610fda565b50565b610d9a610e54565b60665460ff600160a01b909104811690821611610deb5760405162461bcd60e51b815260206004820152600f60248201526e24b73b30b634b2102b32b939b4b7b760891b604482015260640161056e565b6066546040805160ff8085168252600160a01b90930490921660208301527f660877b893e1a9944a1137e9d624a388d36f8e1d2248a5eb64703936f99a6f31910160405180910390a16066805460ff909216600160a01b0260ff60a01b19909216919091179055565b6033546001600160a01b031633146108855760405162461bcd60e51b815260206004820181905260248201527f4f776e61626c653a2063616c6c6572206973206e6f7420746865206f776e6572604482015260640161056e565b6000763d602d80600a3d3981f3363d3d373d3d3d363d730000008360601b60e81c176000526e5af43d82803e903d91602b57fd5bf38360781b1760205281603760096000f590506001600160a01b038116610f4b5760405162461bcd60e51b815260206004820152601760248201527f455243313136373a2063726561746532206661696c6564000000000000000000604482015260640161056e565b92915050565b6040805180820182526066546001600160a01b038082168352606754811660208401529251631bc7a75d60e31b81529285169263de3d3ae892610fa4928692600160a01b90910460ff1690600401611be7565b600060405180830381600087803b158015610fbe57600080fd5b505af1158015610fd2573d6000803e3d6000fd5b505050505050565b603380546001600160a01b038381166001600160a01b0319831681179093556040519116919082907f8be0079c531659141344cd1fd0a4f28419497f9722a3daafe3b4186f6b6457e090600090a35050565b600054610100900460ff166110535760405162461bcd60e51b815260040161056e90611c3c565b610885611259565b816001600160a01b0381166110825760405162461bcd60e51b815260040161056e90611b79565b81610be66001600160a01b03851684611289565b826001600160a01b0381166110bd5760405162461bcd60e51b815260040161056e90611b79565b826001600160a01b0381166110e45760405162461bcd60e51b815260040161056e90611b79565b826040516370a0823160e01b81526001600160a01b038681166004830152600091908816906370a0823190602401602060405180830381865afa15801561112f573d6000803e3d6000fd5b505050506040513d601f19601f820116820180604052508101906111539190611c87565b90506111696001600160a01b038816878761134c565b6040516370a0823160e01b81526001600160a01b038781166004830152600091908916906370a0823190602401602060405180830381865afa1580156111b3573d6000803e3d6000fd5b505050506040513d601f19601f820116820180604052508101906111d79190611c87565b9050856111e48383611ca0565b1461082a576040805162461bcd60e51b81526020600482015260248101919091527f4e6f7420656e6f75676820746f6b656e20776173207472616e7366657272656460448201527f20496620746178207365742052656d6f7665204f757220416464726573732121606482015260840161056e565b600054610100900460ff166112805760405162461bcd60e51b815260040161056e90611c3c565b61088533610fda565b804710156112d95760405162461bcd60e51b815260206004820152601d60248201527f416464726573733a20696e73756666696369656e742062616c616e6365000000604482015260640161056e565b6000826001600160a01b03168260405160006040518083038185875af1925050503d8060008114611326576040519150601f19603f3d011682016040523d82523d6000602084013e61132b565b606091505b5050905080610ce15760405162461bcd60e51b815260040161056e90611a16565b604080516001600160a01b03848116602483015260448083018590528351808403909101815260649092018352602080830180516001600160e01b031663a9059cbb60e01b17905283518085019094528084527f5361666545524332303a206c6f772d6c6576656c2063616c6c206661696c656490840152610ce1928692916000916113dc91851690849061145c565b90508051600014806113fd5750808060200190518101906113fd9190611cb3565b610ce15760405162461bcd60e51b815260206004820152602a60248201527f5361666545524332303a204552433230206f7065726174696f6e20646964206e6044820152691bdd081cdd58d8d9595960b21b606482015260840161056e565b606061146b8484600085611473565b949350505050565b6060824710156114d45760405162461bcd60e51b815260206004820152602660248201527f416464726573733a20696e73756666696369656e742062616c616e636520666f6044820152651c8818d85b1b60d21b606482015260840161056e565b600080866001600160a01b031685876040516114f09190611cf4565b60006040518083038185875af1925050503d806000811461152d576040519150601f19603f3d011682016040523d82523d6000602084013e611532565b606091505b50915091506115438783838761154e565b979650505050505050565b606083156115bd5782516000036115b6576001600160a01b0385163b6115b65760405162461bcd60e51b815260206004820152601d60248201527f416464726573733a2063616c6c20746f206e6f6e2d636f6e7472616374000000604482015260640161056e565b508161146b565b61146b83838151156115d25781518083602001fd5b8060405162461bcd60e51b815260040161056e9190611d10565b6001600160a01b0381168114610d8f57600080fd5b803561160c816115ec565b919050565b60006020828403121561162357600080fd5b813561162e816115ec565b9392505050565b634e487b7160e01b600052604160045260246000fd5b604051610240810167ffffffffffffffff8111828210171561166f5761166f611635565b60405290565b604051601f8201601f1916810167ffffffffffffffff8111828210171561169e5761169e611635565b604052919050565b8015158114610d8f57600080fd5b803561160c816116a6565b6000604082840312156116d157600080fd5b6040516040810181811067ffffffffffffffff821117156116f4576116f4611635565b604052823581526020928301359281019290925250919050565b6000610260828403121561172157600080fd5b61172961164b565b61173283611601565b8152602083013560208201526040830135604082015261175460608401611601565b606082015261176560808401611601565b608082015260a0838101359082015260c0808401359082015260e08084013590820152610100808401359082015261012080840135908201526101408084013590820152610160808401359082015261018080840135908201526101a080840135908201526101c080840135908201526101e06117e38185016116b4565b908201526102008381013590820152610220611801858286016116bf565b908201529392505050565b6000806000806080858703121561182257600080fd5b843561182d816115ec565b9350602085013561183d816115ec565b9250604085013561184d816115ec565b9396929550929360600135925050565b6000602080838503121561187057600080fd5b823567ffffffffffffffff8082111561188857600080fd5b818501915085601f83011261189c57600080fd5b8135818111156118ae576118ae611635565b8060051b91506118bf848301611675565b81815291830184019184810190888411156118d957600080fd5b938501935b8385101561190357843592506118f3836115ec565b82825293850193908501906118de565b98975050505050505050565b803560ff8116811461160c57600080fd5b6000806040838503121561193357600080fd5b823561193e816115ec565b915061194c6020840161190f565b90509250929050565b6000806040838503121561196857600080fd5b8235611973816115ec565b946020939093013593505050565b60008060006060848603121561199657600080fd5b83356119a1816115ec565b925060208401356119b1816115ec565b929592945050506040919091013590565b600080604083850312156119d557600080fd5b82356119e0816115ec565b915060208301356119f0816116a6565b809150509250929050565b600060208284031215611a0d57600080fd5b61162e8261190f565b6020808252603a908201527f416464726573733a20756e61626c6520746f2073656e642076616c75652c207260408201527f6563697069656e74206d61792068617665207265766572746564000000000000606082015260800190565b80516001600160a01b0316825260208101516020830152604081015160408301526060810151611aae60608401826001600160a01b03169052565b506080810151611ac960808401826001600160a01b03169052565b5060a0818101519083015260c0808201519083015260e08082015190830152610100808201519083015261012080820151908301526101408082015190830152610160808201519083015261018080820151908301526101a080820151908301526101c080820151908301526101e0808201511515908301526102008082015190830152610220808201518051828501526020810151610240850152610be6565b6102608101610f4b8284611a73565b6020808252600f908201526e494e56414c4944204144445245535360881b604082015260600190565b634e487b7160e01b600052603260045260246000fd5b634e487b7160e01b600052601160045260246000fd5b600060018201611be057611be0611bb8565b5060010190565b6102c08101611bf68286611a73565b61026082018460005b6002811015611c275781516001600160a01b0316835260209283019290910190600101611bff565b50505060ff83166102a0830152949350505050565b6020808252602b908201527f496e697469616c697a61626c653a20636f6e7472616374206973206e6f74206960408201526a6e697469616c697a696e6760a81b606082015260800190565b600060208284031215611c9957600080fd5b5051919050565b81810381811115610f4b57610f4b611bb8565b600060208284031215611cc557600080fd5b815161162e816116a6565b60005b83811015611ceb578181015183820152602001611cd3565b50506000910152565b60008251611d06818460208701611cd0565b9190910192915050565b6020815260008251806020840152611d2f816040850160208701611cd0565b601f01601f1916919091016040019291505056fea264697066735822122014e40e5f16d715dffb155927dd6bb5fe38a5487ec80f909f9fb5eb84570e983e64736f6c63430008110033",
  "devdoc": {
    "kind": "dev",
    "methods": {
      "owner()": {
        "details": "Returns the address of the current owner."
      },
      "renounceOwnership()": {
        "details": "Leaves the contract without owner. It will not be possible to call `onlyOwner` functions. Can only be called by the current owner. NOTE: Renouncing ownership will leave the contract without an owner, thereby disabling any functionality that is only available to the owner."
      },
      "transferOwnership(address)": {
        "details": "Transfers ownership of the contract to a new account (`newOwner`). Can only be called by the current owner."
      }
    },
    "version": 1
  },
  "userdoc": {
    "kind": "user",
    "methods": {},
    "version": 1
  },
  "storageLayout": {
    "storage": [
      {
        "astId": 138,
        "contract": "contracts/PoolFactory.sol:PoolFactory",
        "label": "_initialized",
        "offset": 0,
        "slot": "0",
        "type": "t_uint8"
      },
      {
        "astId": 141,
        "contract": "contracts/PoolFactory.sol:PoolFactory",
        "label": "_initializing",
        "offset": 1,
        "slot": "0",
        "type": "t_bool"
      },
      {
        "astId": 1161,
        "contract": "contracts/PoolFactory.sol:PoolFactory",
        "label": "__gap",
        "offset": 0,
        "slot": "1",
        "type": "t_array(t_uint256)50_storage"
      },
      {
        "astId": 10,
        "contract": "contracts/PoolFactory.sol:PoolFactory",
        "label": "_owner",
        "offset": 0,
        "slot": "51",
        "type": "t_address"
      },
      {
        "astId": 130,
        "contract": "contracts/PoolFactory.sol:PoolFactory",
        "label": "__gap",
        "offset": 0,
        "slot": "52",
        "type": "t_array(t_uint256)49_storage"
      },
      {
        "astId": 7431,
        "contract": "contracts/PoolFactory.sol:PoolFactory",
        "label": "master",
        "offset": 0,
        "slot": "101",
        "type": "t_address"
      },
      {
        "astId": 7440,
        "contract": "contracts/PoolFactory.sol:PoolFactory",
        "label": "poolOwner",
        "offset": 0,
        "slot": "102",
        "type": "t_address"
      },
      {
        "astId": 7442,
        "contract": "contracts/PoolFactory.sol:PoolFactory",
        "label": "version",
        "offset": 20,
        "slot": "102",
        "type": "t_uint8"
      },
      {
        "astId": 7447,
        "contract": "contracts/PoolFactory.sol:PoolFactory",
        "label": "feeWallet",
        "offset": 0,
        "slot": "103",
        "type": "t_address_payable"
      },
      {
        "astId": 7451,
        "contract": "contracts/PoolFactory.sol:PoolFactory",
        "label": "paymentCurrencies",
        "offset": 0,
        "slot": "104",
        "type": "t_mapping(t_address,t_bool)"
      },
      {
        "astId": 7455,
        "contract": "contracts/PoolFactory.sol:PoolFactory",
        "label": "admin",
        "offset": 0,
        "slot": "105",
        "type": "t_mapping(t_address,t_bool)"
      }
    ],
    "types": {
      "t_address": {
        "encoding": "inplace",
        "label": "address",
        "numberOfBytes": "20"
      },
      "t_address_payable": {
        "encoding": "inplace",
        "label": "address payable",
        "numberOfBytes": "20"
      },
      "t_array(t_uint256)49_storage": {
        "base": "t_uint256",
        "encoding": "inplace",
        "label": "uint256[49]",
        "numberOfBytes": "1568"
      },
      "t_array(t_uint256)50_storage": {
        "base": "t_uint256",
        "encoding": "inplace",
        "label": "uint256[50]",
        "numberOfBytes": "1600"
      },
      "t_bool": {
        "encoding": "inplace",
        "label": "bool",
        "numberOfBytes": "1"
      },
      "t_mapping(t_address,t_bool)": {
        "encoding": "mapping",
        "key": "t_address",
        "label": "mapping(address => bool)",
        "numberOfBytes": "32",
        "value": "t_bool"
      },
      "t_uint256": {
        "encoding": "inplace",
        "label": "uint256",
        "numberOfBytes": "32"
      },
      "t_uint8": {
        "encoding": "inplace",
        "label": "uint8",
        "numberOfBytes": "1"
      }
    }
  }
}